:100000001EEF01F00000000000EF00F00000000013
:0A0010000000000000000000F3D71C
:10001C00220E0C6E086A096A0A6A0B6A0C06D8B4BE
:10002C001FD0D8900B320A32093208320332023216
:10003C0001320032D8A0F2D70C06D8B409D0045043
:10004C0008260550092206500A2207500B22EAD72F
:10005C00045008260550092206500A2207500B228C
:02006C00120080
:10006E001ED03F0E016E39D0060E016E36D05B0EDD
:10007E00016E33D04F0E016E30D0660E016E2DD054
:10008E006D0E016E2AD07D0E016E27D0070E016E09
:10009E0024D07F0E016E21D0670E016E1ED01B5034
:1000AE00000ADFE01B50010ADFE01B50020ADFE00E
:1000BE001B50030ADFE01B50040ADFE01B50050A49
:1000CE00DFE01B50060ADFE01B50070ADFE01B5083
:1000DE00080ADFE01B50090ADFE001507F08006EBE
:0200EE001200FE
:1000F000E80E1D6E030E1E6E000E1F6E206EE80EC3
:10010000006E030E016E000E026E000E036E1BC029
:1001100004F01CC005F0000E066E076E7FDF00C005
:100120001DF001C01EF002C01FF003C020F0000E41
:10013000035C08E1000E025C05E1020E015C02E1D5
:10014000940E005C01E231D0940E1D5E020E1E5A28
:10015000000E1F5A205A050E006E005007E0203294
:100160001F321E321D32209EFF0FF8D71DC000F037
:100170001EC001F01FC002F020C003F0010E1D5E82
:10018000000E1E5A1F5A205A005001100210031070
:100190000CE0000000000000000000000000000073
:0C01A0000000000000000000E1D7120089
:1001AC000900F5CFE6FF0006FBE10106F9E11200BC
:1001BC001ED03F0E016E39D0060E016E36D05B0E8E
:1001CC00016E33D04F0E016E30D0660E016E2DD005
:1001DC006D0E016E2AD07D0E016E27D0070E016EBA
:1001EC0024D07F0E016E21D0670E016E1ED01B50E5
:1001FC00000ADFE01B50010ADFE01B50020ADFE0BF
:10020C001B50030ADFE01B50040ADFE01B50050AF9
:10021C00DFE01B50060ADFE01B50070ADFE01B5033
:10022C00080ADFE01B50090ADFE001C000F01200F1
:10023C00090E156E166A640E176E186A196A1A6A18
:10024C000F0EC16E92809282936A956A80A01BD029
:10025C0080A001D0FDD7640E1724016E000E18206B
:10026C00026E01C017F002C018F0800E030A006E77
:10027C00800E0218005C02E10150E80804E2E80E6E
:10028C00176E030E186E80B21AD080B201D0FDD753
:10029C00640E175C016E000E1858026E01C017F048
:1002AC0002C018F0800E0218006E800E005C02E195
:1002BC00C80E015C04E2C80E176E000E186E19C051
:1002CC001BF076DF00C08CFF15C01BF0CADE00C02F
:1002DC008AFF17C01BF018C01CF004DF194A1A2A39
:1002EC00010E155E000E165A800E006E800E1A1846
:1002FC00005C02E11950090802E2196A1A6A800EC0
:10030C001618006E800E005C02E1000E155C04E213
:0C031C00090E156E000E166E99D7FFD763
:020000040030CA
:0E00000000401F1EFF8381FF0FC00FE00F4066
:00000001FF
