:100000004CEF00F00000000000EF00F000000000E6
:0A0010000000000000000000F3D71C
:0A001C00070E0D6E0D2EFED7120028
:100026000900F5CFE6FF0006FBE10106F9E1120043
:10003600C26A151C006E0050C116070EC012C08E93
:1000460022C000F000360090003600900050C21228
:10005600C280E1DFC282C2A201D0FDD7C4CF01F0C7
:0E006600006AC3500012000E0112C290120078
:10007400FF0E166EFF0E176EFF0E186EFF0E196E32
:10008400C26A151C006E0050C116070EC012C08E45
:04009400C280120014
:100098008CEC00F0946A956A0C0EC16EE7DF226A58
:1000A800C6DF00C01EF001C01FF0010E226EBFDFC8
:1000B80000C020F001C021F0020E226EB8DF00C09F
:1000C8001AF001C01BF081B006D081B204D01AC06A
:1000D8001CF01BC01DF081A006D081B204D01EC048
:1000E8001CF01FC01DF081B006D081A204D020C032
:1000F8001CF021C01DF01DC000F0000E1DBEFF0E3B
:0E010800016E00C08BFF1EC08CFFC9D7FFD751
:1001180010EE15F0010E006E010E016E160EF66E51
:0E012800010EF76E000EF86E13EC00F01200E0
:0101160030B8
:020000040030CA
:0E000000000C1F1EFF8381FF0FC00FE00F409A
:00000001FF
