:1000000097EF00F00000000000EF00F0000000009B
:0A0010000000000000000000F3D71C
:10001C001ED03F0E016E39D0060E016E36D05B0E2F
:10002C00016E33D04F0E016E30D0660E016E2DD0A6
:10003C006D0E016E2AD07D0E016E27D0070E016E5B
:10004C0024D07F0E016E21D0670E016E1ED0195088
:10005C00000ADFE01950010ADFE01950020ADFE064
:10006C001950030ADFE01950040ADFE01950050AA1
:10007C00DFE01950060ADFE01950070ADFE01950DB
:10008C00080ADFE01950090ADFE001C000F0120095
:10009C001ED03F0E016E39D0060E016E36D05B0EAF
:1000AC00016E33D04F0E016E30D0660E016E2DD026
:1000BC006D0E016E2AD07D0E016E27D0070E016EDB
:1000CC0024D07F0E016E21D0670E016E1ED0195008
:1000DC00000ADFE01950010ADFE01950020ADFE0E4
:1000EC001950030ADFE01950040ADFE01950050A21
:1000FC00DFE01950060ADFE01950070ADFE019505B
:10010C00080ADFE01950090ADFE001507F08006E91
:02011C001200CF
:10011E000900F5CFE6FF0006FBE10106F9E112004A
:10012E003F0E156E166A1E0E176E186A0F0EC16EF2
:10013E00926A956AFF0E936E175015188C6E030E09
:10014E00196E65DF001C896E0F0E8114196E9FDF0C
:08015E0000C089FFF9D7FFD7AB
:020000040030CA
:0E00000000081F1EFF8381FF0FC00FE00F409E
:00000001FF
