:10000000CBEF00F00000000000EF00F00000000067
:0A0010000000000000000000F3D71C
:10001C00086A080E0C6E003408360450085ED8B01E
:0E002C0002D00826D89000360C2EF5D7120010
:10003A001ED03F0E016E39D0060E016E36D05B0E11
:10004A00016E33D04F0E016E30D0660E016E2DD088
:10005A006D0E016E2AD07D0E016E27D0070E016E3D
:10006A0024D07F0E016E21D0670E016E1ED018506B
:10007A00000ADFE01850010ADFE01850020ADFE048
:10008A001850030ADFE01850040ADFE01850050A86
:10009A00DFE01850060ADFE01850070ADFE01850C0
:1000AA00080ADFE01850090ADFE00150FF08006E75
:0200BA00120032
:1000BC0080808092809480960A0E046E16C000F0A8
:1000CC00A7DF00C018F0B3DF00C083FF0D0E0C6E6D
:1000DC00FB0E0D6E0D2EFED70C2EFCD70000000073
:1000EC0080908082809480960A0E046E16C000F078
:1000FC008FDF08C000F000C018F099DF00C083FF4C
:10010C000D0E0C6EFB0E0D6E0D2EFED70C2EFCD7AD
:10011C000000000080908092808480960A0E046E0D
:10012C0017C000F075DF00C018F081DF00C083FF3E
:10013C000D0E0C6EFB0E0D6E0D2EFED70C2EFCD77D
:10014C000000000080908092809480860A0E046EDD
:10015C0017C000F05DDF08C000F000C018F067DFCA
:10016C0000C083FF0D0E0C6EFB0E0D6E0D2EFED718
:0A017C000C2EFCD70000000012005A
:100186000900F5CFE6FF0006FBE10106F9E11200E2
:10019600156A050E166E370E176E0F0EC16E926A31
:1001A600956A93809382809680B602D0809401D01F
:1001B600808480B402D0809201D0808280B202D046
:1001C600809001D080801550190A0CE1172A17502B
:1001D6003B0806E2176A162A16503B08D8A0166A8C
:0C01E600FF0E156E68DF152AEED7FFD75C
:020000040030CA
:0E000000000C1F1EFF8381FF0FC00FE00F409A
:00000001FF
