:100000004FEF00F00000000000EF00F000000000E3
:0A0010000000000000000000F3D71C
:10001C001ED03F0E016E39D0060E016E36D05B0E2F
:10002C00016E33D04F0E016E30D0660E016E2DD0A6
:10003C006D0E016E2AD07D0E016E27D0070E016E5B
:10004C0024D07F0E016E21D0670E016E1ED01D5084
:10005C00000ADFE01D50010ADFE01D50020ADFE05C
:10006C001D50030ADFE01D50040ADFE01D50050A95
:10007C00DFE01D50060ADFE01D50070ADFE01D50CF
:10008C00080ADFE01D50090ADFE001507F08006E0E
:02009C00120050
:10009E00720ED36E0F0EC16E926A936A956AD20E6D
:1000AE00196E030E1A6E090E1B6E000E1C6E4E0E8E
:1000BE00196E000E1A6E070E156E000E166E080ED5
:1000CE00176E000E186E080E1B6E000E1C6E090EBB
:1000DE00176E000E186E080E156E000E166E080EB8
:1000EE001D6E95DF00C089FF17C01DF090DF00C0A8
:1000FE008AFF15C01DF08BDF00C08CFFFFD7FFD726
:020000040030CA
:0E00000000081F1EFF8381FF0FC00FE00F409E
:00000001FF
