:04000000E2EF00F03B
:1000080000C015F09EAA04D01CD800C022F09E9A09
:0600180015C000F011000C
:10001E00240E0C6EB50E0D6E0D2EFED70C2EFCD7CB
:06002E00000000001200BA
:0C003400000000000000000000001200AE
:0A004000530E0D6E0D2EFED71200B8
:10004A00AECF01F0ABA202D0AB98AB8801C000F0F2
:02005A00120092
:10005C00FF0E1E6EFF0E1F6EFF0E206EFF0E216E2A
:10006C004A0E1A6E000E1B6E000E1C6E000E1D6EDC
:10007C00FF0E166EFF0E176E000E186E000E196E28
:10008C00FF0E246EFF0E256E000E266E000E276EE0
:10009C00AC8A900EAB6E948E949C9EAA03D0AECF7D
:0600AC0000F0FBD712007A
:1000B200959295909598959A959C959E839283900A
:1000C200839E839C839A8398A9DFA8DFA7DF838A14
:1000D20083888382AEDF8392A1DF8382AADF839249
:1000E2009DDF8382A6DF839299DF83988382A1DFDB
:1000F200839294DF83829DDF8392839A838E8382AD
:1001020098DF83928BDF839E8388838292DF839240
:10011200839883828EDF839281DF83828ADF839258
:100122008388838286DF839279DF8398838281DF6B
:100132008392838E838C838A838883827ADF8392FD
:060142006DDF23801200B6
:1001480028BE02D0839E01D0838E28BC02D0839C17
:1001580001D0838C28BA02D0839A01D0838A28B828
:1001680002D0839801D0838823B002D0838001D045
:10017800839083825BDF839228B602D0839E01D06E
:10018800838E28B402D0839C01D0838C28B202D0FD
:10019800839A01D0838A28B002D0839801D08388BB
:1001A80023B002D0838001D0839083823FDF839283
:0C01B80023A002D030DF01D03FDF120096
:1001C4000F0EC16E929080909E9AF28EF28C9D8A50
:1001D400B886020EB06E080EAF6EAC843DDF67DFEA
:1001E4000C0E286EAFDF2250310AD8B48080225022
:1001F400300AD8B48090030E0B6E8A0E0C6E550E26
:100204000D6E0D2EFED70C2EFCD70B2EFAD7000048
:060214000000E9D7FFD74E
:020000040030CA
:0E000000000C1F1EFF8381FF0FC00FE00F409A
:00000001FF
