:040000005DEF01F0BF
:1000080000C016F001C015F0E1CF19F0E2CF1AF0E8
:10001800E9CF17F0EACF18F09EAA20D01B0E5F6E2A
:10002800000E0001606F44505F26D8B0602B85D861
:100038005FC0E1FF60C0E2FF00C0E6FF1B0EE96E93
:10004800000EEA6E4450E926D8B0EA2AEE50230A98
:1000580003E1010E2F6E01D0442A9E9A16C000F0CB
:1000680015C001F017C0E9FF18C0EAFF19C0E1FF89
:060078001AC0E2FF1100B6
:0C007E0000000000000000000000120064
:10008A00240E0C6EB50E0D6E0D2EFED70C2EFCD75F
:06009A000000000012004E
:0A00A000530E0D6E0D2EFED7120058
:1000AA005EBE02D0839E01D0838E5EBC02D0839C4A
:1000BA0001D0838C5EBA02D0839A01D0838A5EB85B
:1000CA0002D0839801D0838849B002D0838001D0BE
:1000DA0083908382CFDF83925EB602D0839E01D063
:1000EA00838E5EB402D0839C01D0838C5EB202D030
:1000FA00839A01D0838A5EB002D0839801D0838824
:10010A0049B002D0838001D083908382B3DF839287
:0C011A0049A002D0B5DF01D0BEDF12000A
:0C01260049905DC05EF0BEDF4980120011
:100132000900F5CFE6FF0006FBE10106F9E1120036
:10014200AECF01F0ABA202D0AB98AB8801C000F0F9
:02015200120099
:10015400FF0E456EFF0E466EFF0E476EFF0E486E95
:10016400420E4A6E010E4B6E000E4C6E000E4D6E2A
:10017400FF0E526EFF0E536E000E546E000E556E3F
:10018400FF0E4E6EFF0E4F6E000E506E000E516E3F
:10019400AC8A900EAB6E948E949C9EAA03D0AECF84
:0601A40000F0FBD7120081
:1001AA000FD0800E586E19D0C00E586E16D0940E0D
:1001BA00586E13D0D40E586E10D0800E586E0DD0D3
:1001CA005850010AEEE05850020AEEE05850030A6D
:1001DA00EEE05850040AEEE0F0D75904006E585089
:1001EA00002600C058F000C05EF05ADF49905C6AF1
:1001FA005C505A24E96E000E5B20EA6EEE520BE068
:10020A005C505A24E96E000E5B20EA6EEECF5DF078
:0A021A0085DF5C2AEDD74980120051
:10022400959295909598959A959C959E8392839096
:10023400839E839C839A839826DF25DF24DF838A29
:10024400838883821ADF83921EDF838216DF839280
:100254001ADF838212DF839216DF839883820DDF95
:10026400839211DF838209DF8392839A838E838250
:1002740004DF839208DF839E83888382FEDE839279
:1002840083988382FADE8392FEDE8382F6DE839293
:1002940083888382F2DE8392F6DE83988382EDDEA6
:1002A4008392838E838C838A83888382E6DE83921F
:0602B400EADE49801200A1
:1002BA00DAEC01F00F0EC16E929080909E9AF28E47
:1002CA00F28C9D8AB886020EB06E080EAF6EAC84B0
:1002DA003CDFA3DF0C0E5E6EE3DE020E586E010EEB
:1002EA00596E300E5A6E000E5B6E5ADF2F50010A9D
:1002FA002FE11B504C0A0AE11C50310A07E11D503C
:10030A004F0A04E11E504E0AD8B480801B504C0A92
:10031A000DE11C50310A0AE11D504F0A07E11E5037
:10032A00460A04E11F50460AD8B48090576A5750CB
:10033A0013080CE31B0EE16E000EE26E5750E12625
:10034A00D8B0E22A200EE66E572AF1D7446A2F6AFD
:10035A005650310AD8B480805650300AD8B48090AA
:10036A00030E0B6E8A0E0C6E550E0D6E0D2EFED7F9
:10037A000C2EFCD70B2EFAD700000000AED7FFD701
:1003B40010EE1BF02A0E006E010E016E8A0EF66E10
:0E03C400030EF76E000EF86E99EC00F01200BA
:10038A002000000000000000000000000000000043
:04039A00000000005F
:01039E00005E
:10039F0052414D49524F0000000000000000000084
:0403AF00000000004A
:0103B3000049
:020000040030CA
:0E000000000C1F1EFF8381FF0FC00FE00F409A
:00000001FF
