:1000000044EF00F00000000000EF00F000000000EE
:0A0010000000000000000000F3D71C
:10001C001BC000F01CC001F001320032019E01BC7B
:10002C00018E01320032019E01BC018E00C0BEFF68
:10003C00010E1B14006E00B002D0BD9801D0BD881B
:10004C00020E1B14036E1CC004F0000E041603C039
:10005C0000F004C001F001320032019E01BC018E9F
:0C006C0000B002D0BD9A01D0BD8A120085
:100078000900F5CFE6FF0006FBE10106F9E11200F1
:10008800C80E156E166A320E176E186A0F0EC16EFC
:1000980094940C0EBD6E17C0CBFF15C01BF016C094
:1000A8001CF0B8DF050ECA6E196A1A6A800E006E57
:1000B800800E1A18005C02E11950C80811E319C033
:1000C8001BF01AC01CF0A6DF410E0C6EEE0E0D6E72
:1000D8000D2EFED70C2EFCD70000194A1A2AE6D797
:1000E800C80E196E000E1A6E800E006E800E1A1859
:1000F800005C02E11950000813E219C01BF01AC095
:100108001CF088DF410E0C6EEE0E0D6E0D2EFED724
:100118000C2EFCD70000010E195E000E1A5AE4D707
:04012800C3D7FFD763
:020000040030CA
:0E00000000001F1EFF8381FF0FC00FE00F40A6
:00000001FF
