:100000007CEF05F00000000000EF00F000000000B1
:0A0010000000000000000000F3D71C
:0E001C00026A016A006A086A036A000E120096
:10002A000B820BAE1FEF00F00368026801680068DC
:08003A000A360232FF0E12002B
:080042000AAE029E000E12003E
:10004A000B840BAE30EF00F0010E036E026A016AF8
:0A005A00006A0A360232FF0E12009F
:100064000CB074EF00F00CA21AEF01F00E6A000E4F
:1000740002648BEF00F0F00E0214D8A456EF00F0E7
:10008400023A01380F0B02260138F00B016E0038DA
:100094000F0B01260038F00B006E08380F0B0026FA
:1000A4000838F00B086E0E84D89002BE6FEF00F093
:1000B40008360036013602360E2A02BE6FEF00F013
:1000C40008360036013602360E2A02BE6FEF00F003
:1000D40008360036013602360E2A0E50036410EF3D
:1000E40001F0035E0BBC08AE15EF01F0D880800E62
:1000F40008640030000E002201220222D8A015EF6D
:1001040001F0023201320032034A1AEF01F015EF16
:1001140001F001C002F000C001F008C000F0086A5C
:10012400000E0E860264C2EF00F0F00E0214D8A492
:10013400AAEF00F0023A01380F0B02260138F00B47
:10014400016E00380F0B01260038F00B006E0E8490
:10015400D89002BE6FEF00F00036013602360E2A48
:1001640002BE6FEF00F00036013602360E2A02BEE0
:100174006FEF00F00036013602360E2A6FEF00F002
:1001840001C002F000C001F0006A000E0E960E8855
:100194000264EFEF00F0F00E0214D8A4DAEF00F0DE
:1001A400023A01380F0B02260138F00B016E0E845F
:1001B400D89002BE6FEF00F0013602360E2A02BE5E
:1001C4006FEF00F0013602360E2A02BE6FEF00F028
:1001D400013602360E2A6FEF00F001C002F0016A08
:1001E400000E0E8602641FEF01F0F00E0214D8A474
:1001F400FEEF00F0023A0E84D89002BE6FEF00F0DA
:1002040002360E2A02BE6FEF00F002360E2A02BE3C
:100214006FEF00F002360E2A6FEF00F0010E0C6E45
:1002240012DF22EF01F0020E0C6E09DF22EF01F063
:10023400040E0C6EF8DE22EF01F0080E0C6EECDEFC
:020244001200A6
:080246000B6A0B86FF0E12008B
:10024E00025006180E6E086A096A0B6A035007649C
:10025E001AEF02F006500A6E068E028E03500B6ED7
:10026E000750036E000E0B646AEF01F00B50075E31
:10027E00D8B40BEF02F0070E0764D9EF01F0075E5A
:10028E0000C008F001C000F002C001F0026A074E83
:10029E000BEF02F00764AEEF01F0075E00C008F04E
:1002AE0001C000F0016A074E0BEF02F007648CEFFD
:1002BE0001F0075E00C008F0006A074E0BEF02F077
:1002CE00076473EF01F00AC002F005C001F004C02C
:1002DE0000F0086A34EF03F0030E07647EEF01F0BE
:1002EE00075E08380F0B086E074E0BEF02F0D89022
:1002FE000832074E0BEF02F0D8900832074E0BEF84
:10030E0002F0D89008320BEF02F0030E07649DEF57
:10031E0001F0075E08380F0B086E0038F00B082648
:10032E0000380F0B006E074E0BEF02F0D890003224
:10033E000832074E0BEF02F0D89000320832074E0B
:10034E000BEF02F0D890003208320BEF02F0030EE2
:10035E000764C5EF01F0075E08380F0B086E003812
:10036E00F00B082600380F0B006E0138F00B00263C
:10037E0001380F0B016E074E0BEF02F0D8900132D1
:10038E0000320832074E0BEF02F0D89001320032E5
:10039E000832074E0BEF02F0D890013200320832CD
:1003AE000BEF02F0030E0764F6EF01F0075E08385C
:1003BE000F0B086E0038F00B082600380F0B006E7E
:1003CE000138F00B002601380F0B016E0238F00BCE
:1003DE00012602380F0B026E074E0BEF02F0D8907B
:1003EE000232013200320832074E0BEF02F0D89083
:1003FE000232013200320832074E0BEF02F0D89073
:10040E000232013200320832096A000E0EAEFFEFE0
:10041E0002F0081E001E011E021E082A00220122E2
:10042E000222FFEF02F00750D8A420EF02F034EFC3
:10043E0003F0096A02C00AF0028E068E0750035CB2
:10044E00076ED8B4F2EF02F0070E0764C0EF02F0A9
:10045E00075E0450096E0550046E0650056E066A5E
:10046E00074EF2EF02F0070E076495EF02F0075EFB
:10047E000450096E0550046E056A074EF2EF02F045
:10048E00070E076473EF02F0075E0450096E046AEC
:10049E00074EF2EF02F0070E07645AEF02F00AC0A1
:1004AE0002F034EF03F0030E076465EF02F0075E0F
:1004BE0009380F0B096E074EF2EF02F0D890093291
:1004CE00074EF2EF02F0D8900932074EF2EF02F02B
:1004DE00D8900932F2EF02F0030E076484EF02F0B7
:1004EE00075E09380F0B096E0438F00B0926043825
:1004FE000F0B046E074EF2EF02F0D8900432093261
:10050E00074EF2EF02F0D89004320932074EF2EFA6
:10051E0002F0D89004320932F2EF02F0030E0764B3
:10052E00ACEF02F0075E09380F0B096E0438F00BC2
:10053E00092604380F0B046E0538F00B0426053817
:10054E000F0B056E074EF2EF02F0D8900532043213
:10055E000932074EF2EF02F0D8900532043209321A
:10056E00074EF2EF02F0D890053204320932F2EF64
:10057E0002F0030E0764DDEF02F0075E09380F0B81
:10058E00096E0438F00B092604380F0B046E05387B
:10059E00F00B042605380F0B056E0638F00B0526FA
:1005AE0006380F0B066E074EF2EF02F0D8900632A9
:1005BE00053204320932074EF2EF02F0D8900632BD
:1005CE00053204320932074EF2EF02F0D8900632AD
:1005DE00053204320932086A000E0EAEFFEF02F049
:1005EE00091E041E051E061E092A042205220622C5
:1005FE0009500826045000220550012206500222FE
:10060E000EBE16EF03F0D8A025EF03F00232013232
:10061E0000320832033E25EF03F02FEF03F0D8B07F
:10062E002AEF03F0000E081E001E011E021E082AED
:10063E000022012202220A7E2AEF03F0010E0C6E26
:10064E000ADD36EF03F0020E0C6E05DD36EF03F019
:10065E00040E0C6EE3DC36EF03F0000E0C6E12008F
:10066E000B800BAE43EF03F0026A0AAEFF0E026E72
:0C067E00016E006E0A360232FF0E120000
:0C068A002BC0ADFFACB201D0FDD71200B8
:10069600086A096A000E07620364D0EF03F002508D
:1006A60006180A6E075003267E0ED8A061EF03F0E7
:1006B600035ED8B0D4EF03F065EF03F0035ED8A075
:1006C600D8EF03F0028E068E02C00EF001C00BF0CA
:1006D60000C00DF000500402F4CF0CF001500502EA
:1006E600F4CF00F0F3CF08F00402F3500C26F450D8
:1006F6000822000E00220D500502F3500C26F4507D
:100706000822000E002202500402F3500826F4507C
:10071600002202500502016A000E0122F350002653
:10072600F45001220D500602F3500826F450002220
:10073600026A000E012202220B500602F350002626
:10074600F4500122000E02220E500602F35001263A
:10075600F450022202BEB8EF03F008360036013626
:1007660002360306D8B4D8EF03F0CBEF03F0D880F7
:10077600800E08640030000E002201220222D8A05A
:10078600CBEF03F0023201320032034AD4EF03F01A
:100796000AAE029E000EDAEF03F0010E3CDCDAEF41
:1007A60003F0020E3FDCDAEF03F0040E4BDC12001E
:1007B6000050086E0150006E0250016E0350026E2A
:1007C600036A0B6A0C6A9E0E036E0A6A02AEF8EFA3
:1007D60003F0081E001E011E021E082AD8B4002AB5
:1007E600D8B4012AD8B4022A0A8E020E0C6E37DC5F
:0207F6001200EF
:1007F8000450000A12E10550000A0FE10650000AF1
:100808000CE10750000A09E1FF0E006EFF0E016EB1
:100818007F0E026EFF0E036EA7D0086A096A0750A2
:10082800D8B4A7EF04F00350D8B4ABEF04F00250EB
:1008380006180A6E028E068E0E6A02C008F001C003
:100848000CF000C00DF004500D5E0550D8A0053C1A
:100858000C5E0650D8A0063C085E086A0C6A0D6A51
:10086800D8A03EEF04F0D8900232013200320832AC
:10087800010E0E6E0750035ED8A04BEF04F07E0EFB
:100888000E240326D8B0B0EF04F051EF04F07E0E2A
:100898000E240326D8A0B5EF04F0180E0B6E0D3603
:1008A8000C3608360036013602360E360450005E25
:1008B8000550D8A0053C015E0650D8A0063C025E53
:1008C80006340E120EA06CEF04F00D8077EF04F0E2
:1008D800045000260550D8B0053C01260650D8B073
:1008E800062802260D900B2E53EF04F09DEF04F01E
:1008F800D8900036013602360E360450005E055098
:10090800D8A0053C015E0650D8A0063C025E06341D
:100918000E10010B0D26D8B00C2AD8B4082AD8A47A
:100928009DEF04F008320C320D32032AD8B4B0EF30
:1009380004F00AAE089E0850026E0C50016E0D506D
:10094800006EB8EF04F0010E7ADCB8EF04F0020E86
:100958000EEC00F0B8EF04F0040E15EC00F0B8EF60
:0A09680004F0080E25EC00F0120068
:100972000B6A0C6A0A6A0350D8B403EF05F0028EC0
:100982008E0E035E03BECBEF04F0D8B4CBEF04F0BF
:1009920007EF05F0036C080E035CD8A0E2EF04F049
:1009A200036E013602C001F0026A080E035CD8A091
:1009B200E2EF04F00136016A0350D8A4D890ECEFBC
:1009C20004F00350D8B4ECEF04F0D89002320132B4
:1009D200032EE6EF04F00BBC01A0F9EF04F0D8A05F
:1009E200F9EF04F0012AD8B4022A02BE16EF05F08C
:1009F2000AAE1BEF05F0021E011E012AD8B4022A1C
:100A02001BEF05F0026A016A1BEF05F00B800BAECB
:100A12001FEF05F0026A0AAE1FEF05F0FF0E026E2D
:100A2200016E0A3602321FEF05F0010E0C6E1EDE59
:100A320021EF05F0000E0C6E21EF05F0FF0E0C6E9B
:0A0A42000150006E0250016E120018
:080A4C00067E27EC01F0120008
:100A54000900F5CFE6FF0006FBE10106F9E112000B
:100A6400829C828EAC9CAB9CAC9827C000F028C0C2
:100A740001F029C002F02AC003F09BDE000E046ED0
:100A8400000E056E000E066E850E076E02DE00C0B7
:100A940004F001C005F002C006F003C007F0000E28
:100AA400006E240E016E740E026E950E036EA2DEAD
:100AB400000E046E000E056E000E066E7F0E076EAD
:100AC400C3DF55DF00C0AFFFAC94AC8AAB8EAB88FC
:020AD40012000E
:100AD60027C0E9FF28C0EAFFEE520AE027C0E9FF77
:100AE60028C0EAFFEECF2BF0CDDD274A282AF0D723
:020AF6001200EC
:100AF800ABEC05F00F0EC16E800E276E250E286E2A
:100B0800000E296E2A6EAADF150E276E000E286EBB
:100B1800DEDF1E0E276E000E286ED9DF040E0B6E68
:100B28000C0E0C6E330E0D6E0D2EFED70C2EFCD750
:0C0B38000B2EFAD700000000E7D7FFD713
:100B560010EE15F0120E006E010E016E440EF66ECA
:0E0B66000B0EF76E000EF86E2AEC05F0120072
:090B44005175696B65200A0D0072
:090B4D004C6572646F200A0D0072
:020000040030CA
:0E000000000C1F1EFF8381FF0FC00FE00F409A
:00000001FF
