:1000000083EF06F00000000000EF00F000000000A9
:0A0010000000000000000000F3D71C
:08001C000AAE029E000E120064
:100024000B820BAE1CEF00F00368026801680068E5
:080034000A360232FF0E120031
:0E003C00026A016A006A086A036A000E120076
:10004A000B840BAE30EF00F0010E036E026A016AF8
:0A005A00006A0A360232FF0E12009F
:100064000CB074EF00F00CA21AEF01F00E6A000E4F
:1000740002648BEF00F0F00E0214D8A456EF00F0E7
:10008400023A01380F0B02260138F00B016E0038DA
:100094000F0B01260038F00B006E08380F0B0026FA
:1000A4000838F00B086E0E84D89002BE6FEF00F093
:1000B40008360036013602360E2A02BE6FEF00F013
:1000C40008360036013602360E2A02BE6FEF00F003
:1000D40008360036013602360E2A0E50036410EF3D
:1000E40001F0035E0BBC08AE15EF01F0D880800E62
:1000F40008640030000E002201220222D8A015EF6D
:1001040001F0023201320032034A1AEF01F015EF16
:1001140001F001C002F000C001F008C000F0086A5C
:10012400000E0E860264C2EF00F0F00E0214D8A492
:10013400AAEF00F0023A01380F0B02260138F00B47
:10014400016E00380F0B01260038F00B006E0E8490
:10015400D89002BE6FEF00F00036013602360E2A48
:1001640002BE6FEF00F00036013602360E2A02BEE0
:100174006FEF00F00036013602360E2A6FEF00F002
:1001840001C002F000C001F0006A000E0E960E8855
:100194000264EFEF00F0F00E0214D8A4DAEF00F0DE
:1001A400023A01380F0B02260138F00B016E0E845F
:1001B400D89002BE6FEF00F0013602360E2A02BE5E
:1001C4006FEF00F0013602360E2A02BE6FEF00F028
:1001D400013602360E2A6FEF00F001C002F0016A08
:1001E400000E0E8602641FEF01F0F00E0214D8A474
:1001F400FEEF00F0023A0E84D89002BE6FEF00F0DA
:1002040002360E2A02BE6FEF00F002360E2A02BE3C
:100214006FEF00F002360E2A6FEF00F0010E0C6E45
:1002240012DF22EF01F0020E0C6EF6DE22EF01F077
:10023400040E0C6EF5DE22EF01F0080E0C6EFCDEEF
:020244001200A6
:080246000B6A0B86FF0E12008B
:10024E00025006180E6E086A096A0B6A035007649C
:10025E001AEF02F006500A6E068E028E03500B6ED7
:10026E000750036E000E0B646AEF01F00B50075E31
:10027E00D8B40BEF02F0070E0764D9EF01F0075E5A
:10028E0000C008F001C000F002C001F0026A074E83
:10029E000BEF02F00764AEEF01F0075E00C008F04E
:1002AE0001C000F0016A074E0BEF02F007648CEFFD
:1002BE0001F0075E00C008F0006A074E0BEF02F077
:1002CE00076473EF01F00AC002F005C001F004C02C
:1002DE0000F0086A34EF03F0030E07647EEF01F0BE
:1002EE00075E08380F0B086E074E0BEF02F0D89022
:1002FE000832074E0BEF02F0D8900832074E0BEF84
:10030E0002F0D89008320BEF02F0030E07649DEF57
:10031E0001F0075E08380F0B086E0038F00B082648
:10032E0000380F0B006E074E0BEF02F0D890003224
:10033E000832074E0BEF02F0D89000320832074E0B
:10034E000BEF02F0D890003208320BEF02F0030EE2
:10035E000764C5EF01F0075E08380F0B086E003812
:10036E00F00B082600380F0B006E0138F00B00263C
:10037E0001380F0B016E074E0BEF02F0D8900132D1
:10038E0000320832074E0BEF02F0D89001320032E5
:10039E000832074E0BEF02F0D890013200320832CD
:1003AE000BEF02F0030E0764F6EF01F0075E08385C
:1003BE000F0B086E0038F00B082600380F0B006E7E
:1003CE000138F00B002601380F0B016E0238F00BCE
:1003DE00012602380F0B026E074E0BEF02F0D8907B
:1003EE000232013200320832074E0BEF02F0D89083
:1003FE000232013200320832074E0BEF02F0D89073
:10040E000232013200320832096A000E0EAEFFEFE0
:10041E0002F0081E001E011E021E082A00220122E2
:10042E000222FFEF02F00750D8A420EF02F034EFC3
:10043E0003F0096A02C00AF0028E068E0750035CB2
:10044E00076ED8B4F2EF02F0070E0764C0EF02F0A9
:10045E00075E0450096E0550046E0650056E066A5E
:10046E00074EF2EF02F0070E076495EF02F0075EFB
:10047E000450096E0550046E056A074EF2EF02F045
:10048E00070E076473EF02F0075E0450096E046AEC
:10049E00074EF2EF02F0070E07645AEF02F00AC0A1
:1004AE0002F034EF03F0030E076465EF02F0075E0F
:1004BE0009380F0B096E074EF2EF02F0D890093291
:1004CE00074EF2EF02F0D8900932074EF2EF02F02B
:1004DE00D8900932F2EF02F0030E076484EF02F0B7
:1004EE00075E09380F0B096E0438F00B0926043825
:1004FE000F0B046E074EF2EF02F0D8900432093261
:10050E00074EF2EF02F0D89004320932074EF2EFA6
:10051E0002F0D89004320932F2EF02F0030E0764B3
:10052E00ACEF02F0075E09380F0B096E0438F00BC2
:10053E00092604380F0B046E0538F00B0426053817
:10054E000F0B056E074EF2EF02F0D8900532043213
:10055E000932074EF2EF02F0D8900532043209321A
:10056E00074EF2EF02F0D890053204320932F2EF64
:10057E0002F0030E0764DDEF02F0075E09380F0B81
:10058E00096E0438F00B092604380F0B046E05387B
:10059E00F00B042605380F0B056E0638F00B0526FA
:1005AE0006380F0B066E074EF2EF02F0D8900632A9
:1005BE00053204320932074EF2EF02F0D8900632BD
:1005CE00053204320932074EF2EF02F0D8900632AD
:1005DE00053204320932086A000E0EAEFFEF02F049
:1005EE00091E041E051E061E092A042205220622C5
:1005FE0009500826045000220550012206500222FE
:10060E000EBE16EF03F0D8A025EF03F00232013232
:10061E0000320832033E25EF03F02FEF03F0D8B07F
:10062E002AEF03F0000E081E001E011E021E082AED
:10063E000022012202220A7E2AEF03F0010E0C6E26
:10064E000ADD36EF03F0020E0C6E05DD36EF03F019
:10065E00040E0C6EE0DC36EF03F0000E0C6E120092
:10066E000B800BAE43EF03F0026A0AAEFF0E026E72
:0C067E00016E006E0A360232FF0E120000
:0C068A0030C0ADFFACB201D0FDD71200B3
:10069600086A096A000E07620364D0EF03F002508D
:1006A60006180A6E075003267E0ED8A061EF03F0E7
:1006B600035ED8B0D4EF03F065EF03F0035ED8A075
:1006C600D8EF03F0028E068E02C00EF001C00BF0CA
:1006D60000C00DF000500402F4CF0CF001500502EA
:1006E600F4CF00F0F3CF08F00402F3500C26F450D8
:1006F6000822000E00220D500502F3500C26F4507D
:100706000822000E002202500402F3500826F4507C
:10071600002202500502016A000E0122F350002653
:10072600F45001220D500602F3500826F450002220
:10073600026A000E012202220B500602F350002626
:10074600F4500122000E02220E500602F35001263A
:10075600F450022202BEB8EF03F008360036013626
:1007660002360306D8B4D8EF03F0CBEF03F0D880F7
:10077600800E08640030000E002201220222D8A05A
:10078600CBEF03F0023201320032034AD4EF03F01A
:100796000AAE029E000EDAEF03F0010E4CDCDAEF31
:1007A60003F0020E3CDCDAEF03F0040E4BDC120021
:1007B6000B6A0C6A0A6A0350D8B425EF04F0028E5D
:1007C6008E0E035E03BEEDEF03F0D8B4EDEF03F03B
:1007D60029EF04F0036C080E035CD8A004EF04F0C4
:1007E600036E013602C001F0026A080E035CD8A04F
:1007F60004EF04F00136016A0350D8A4D8900EEF36
:1008060004F00350D8B40EEF04F0D890023201324F
:10081600032E08EF04F00BBC01A01BEF04F0D8A0D8
:100826001BEF04F0012AD8B4022A02BE38EF04F006
:100836000AAE3DEF04F0021E011E012AD8B4022AB8
:100846003DEF04F0026A016A3DEF04F00B800BAE47
:1008560041EF04F0026A0AAE41EF04F0FF0E026EA9
:10086600016E0A36023241EF04F0010E0C6EFCDE18
:1008760043EF04F0000E0C6E43EF04F0FF0E0C6E17
:0A0886000150006E0250016E1200D6
:06089000067EDDDC120013
:10089600400E006E1F0E016E000E026E036E1200F9
:1008A6000450000A12E10550000A0FE10650000A42
:1008B6000CE10750000A09E1FF0E006EFF0E016E03
:1008C6007F0E026EFF0E036EA7D0086A096A0750F4
:1008D600D8B4FEEF04F00350D8B402EF05F002508E
:1008E60006180A6E028E068E0E6A02C008F001C055
:1008F6000CF000C00DF004500D5E0550D8A0053C6C
:100906000C5E0650D8A0063C085E086A0C6A0D6AA2
:10091600D8A095EF04F0D8900232013200320832A6
:10092600010E0E6E0750035ED8A0A2EF04F07E0EF5
:100936000E240326D8B007EF05F0A8EF04F07E0ECC
:100946000E240326D8A00CEF05F0180E0B6E0D36FC
:100956000C3608360036013602360E360450005E76
:100966000550D8A0053C015E0650D8A0063C025EA4
:1009760006340E120EA0C3EF04F00D80CEEF04F085
:10098600045000260550D8B0053C01260650D8B0C4
:10099600062802260D900B2EAAEF04F0F4EF04F0C1
:1009A600D8900036013602360E360450005E0550E9
:1009B600D8A0053C015E0650D8A0063C025E06346F
:1009C6000E10010B0D26D8B00C2AD8B4082AD8A4CC
:1009D600F4EF04F008320C320D32032AD8B407EFD4
:1009E60005F00AAE089E0850026E0C50016E0D50BE
:1009F600006E0FEF05F0010E23DC0FEF05F0020E7F
:100A06001EEC00F00FEF05F0040E12EC00F00FEFF5
:0A0A160005F0080E25EC00F01200B8
:100A20000A6A0350D8A40A800750D8A40A820A5040
:100A3000D8B473EF05F0030AD8B42CEF05F00AB070
:100A400027EF05F006AE71EF05F06FEF05F002AE8F
:100A50006FEF05F071EF05F00250800B0A6E029EF9
:100A60000650800B069E0A18D8B43DEF05F00A50D8
:100A7000D8B46FEF05F071EF05F00750035CD8B400
:100A800047EF05F0D8A063EF05F069EF05F00650D9
:100A9000025CD8B451EF05F0D8A063EF05F069EF20
:100AA00005F00550015CD8B45BEF05F0D8A063EF0A
:100AB00005F069EF05F00450005CD8B473EF05F061
:100AC000D8B069EF05F00A52D8B471EF05F06FEFB6
:100AD00005F00A52D8B46FEF05F071EF05F0D88039
:0E0AE0001200D8901200D880D88412001200A4
:100AEE000050086E0150006E0250016E0350026EEF
:100AFE00036A0B6A0C6A9E0E036E0A6A020E0C6E75
:060B0E0032EC00F01200C1
:100B14000050086E0150006E0250016E0350026EC8
:100B2400036A0B6A0C6A9E0E036E0A6A02AEA7EF92
:100B340005F0081E001E011E021E082AD8B4002A51
:100B4400D8B4012AD8B4022A0A8E020E0C6E32ECF2
:040B540000F012009B
:100B5800829C828EAC9CAB9CAC9899DEC4DF000E64
:100B6800046E000E056E7A0E066E880E076E8FDD17
:100B780000C004F001C005F002C006F003C007F091
:100B8800000E006E240E016E740E026E940E036E3B
:100B980043DF000ED8B0010E006E005244E077DE4D
:100BA800A2DF000E046E000E056E7A0E066E880E29
:100BB800076E6DDD00C02CF001C02DF002C02EF0D4
:100BC80003C02FF028C000F029C001F02AC002F0AD
:100BD8002BC003F09BDF000E046E000E056E000EA6
:100BE800066E830E076E53DD00C004F001C005F0E9
:100BF80002C006F003C007F02CC000F02DC001F0C1
:100C08002EC002F02FC003F04ADE000E046E000E64
:100C1800056E000E066E7F0E076E36DEC8DD00C05C
:100C2800AFFFAC8443D033DE5EDF000E046E000EEF
:100C3800056E7A0E066E880E076E29DD00C02CF050
:100C480001C02DF002C02EF003C02FF028C000F024
:100C580029C001F02AC002F02BC003F057DF000EB4
:100C6800046E000E056E000E066E850E076E0FDD13
:100C780000C004F001C005F002C006F003C007F090
:100C88002CC000F02DC001F02EC002F02FC003F0E0
:100C980006DE000E046E000E056E000E066E7F0E58
:100CA800076EF2DD84DD00C0AFFFAC94AC8AAB8E7A
:040CB800AB881200F3
:100CBC000900F5CFE6FF0006FBE10106F9E11200A1
:100CCC0028C0E9FF29C0EAFFEE520AE028C0E9FF7C
:100CDC0029C0EAFFEECF30F0D2DC284A292AF0D71F
:020CEC001200F4
:0E0CEE00ABB2AB980000AB88AECF00F01200A6
:0A0CFC00000E9EBA010E006E1200F9
:100D0600C2EC06F00F0EC16E9290800E286E250E74
:100D1600296E000E2A6E2B6E1CDFEDDF0050010AD5
:100D26000BE1E2DF00C027F00050610AD8B48090E2
:100D36002750620AD8B48080150E286E000E296EE0
:100D4600C2DF1E0E286E000E296EBDDF040E0B6E6E
:100D56000C0E0C6E330E0D6E0D2EFED70C2EFCD720
:0C0D66000B2EFAD700000000D8D7FFD7F2
:100D840010EE15F0120E006E010E016E720EF66E6C
:0E0D94000D0EF76E000EF86E5EEC06F012000B
:090D72005175696B65200A0D0042
:090D7B004C6572646F200A0D0042
:020000040030CA
:0E000000000C1F1EFF8381FF0FC00FE00F409A
:00000001FF
