:10000000C4EF1EF00000000000EF00F00000000050
:0A0010000000000000000000F3D71C
:08001C000AAE029E000E120064
:100024000B840BAE1DEF00F0010E036E026A016A31
:0A003400006A0A360232FF0E1200C5
:0E003E00026A016A006A086A036A000E120074
:10004C000B820BAE30EF00F00368026801680068A9
:08005C000A360232FF0E120009
:100064000CB074EF00F00CA21AEF01F00E6A000E4F
:1000740002648BEF00F0F00E0214D8A456EF00F0E7
:10008400023A01380F0B02260138F00B016E0038DA
:100094000F0B01260038F00B006E08380F0B0026FA
:1000A4000838F00B086E0E84D89002BE6FEF00F093
:1000B40008360036013602360E2A02BE6FEF00F013
:1000C40008360036013602360E2A02BE6FEF00F003
:1000D40008360036013602360E2A0E50036410EF3D
:1000E40001F0035E0BBC08AE15EF01F0D880800E62
:1000F40008640030000E002201220222D8A015EF6D
:1001040001F0023201320032034A1AEF01F015EF16
:1001140001F001C002F000C001F008C000F0086A5C
:10012400000E0E860264C2EF00F0F00E0214D8A492
:10013400AAEF00F0023A01380F0B02260138F00B47
:10014400016E00380F0B01260038F00B006E0E8490
:10015400D89002BE6FEF00F00036013602360E2A48
:1001640002BE6FEF00F00036013602360E2A02BEE0
:100174006FEF00F00036013602360E2A6FEF00F002
:1001840001C002F000C001F0006A000E0E960E8855
:100194000264EFEF00F0F00E0214D8A4DAEF00F0DE
:1001A400023A01380F0B02260138F00B016E0E845F
:1001B400D89002BE6FEF00F0013602360E2A02BE5E
:1001C4006FEF00F0013602360E2A02BE6FEF00F028
:1001D400013602360E2A6FEF00F001C002F0016A08
:1001E400000E0E8602641FEF01F0F00E0214D8A474
:1001F400FEEF00F0023A0E84D89002BE6FEF00F0DA
:1002040002360E2A02BE6FEF00F002360E2A02BE3C
:100214006FEF00F002360E2A6FEF00F0010E0C6E45
:10022400FFDE22EF01F0020E0C6EF6DE22EF01F08B
:10023400040E0C6E09DF22EF01F0080E0C6EFDDED9
:020244001200A6
:10024600025006180E6E086A096A0B6A03500764A4
:1002560016EF02F006500A6E068E028E03500B6EE3
:100266000750036E000E0B6466EF01F00B50075E3D
:10027600D8B407EF02F0070E0764D5EF01F0075E6A
:1002860000C008F001C000F002C001F0026A074E8B
:1002960007EF02F00764AAEF01F0075E00C008F05E
:1002A60001C000F0016A074E07EF02F0076488EF0D
:1002B60001F0075E00C008F0006A074E07EF02F083
:1002C60007646FEF01F00AC002F005C001F004C038
:1002D60000F0086A30EF03F0030E07647AEF01F0CE
:1002E600075E08380F0B086E074E07EF02F0D8902E
:1002F6000832074E07EF02F0D8900832074E07EF94
:1003060002F0D890083207EF02F0030E076499EF67
:1003160001F0075E08380F0B086E0038F00B082650
:1003260000380F0B006E074E07EF02F0D890003230
:100336000832074E07EF02F0D89000320832074E17
:1003460007EF02F0D8900032083207EF02F0030EF2
:100356000764C1EF01F0075E08380F0B086E00381E
:10036600F00B082600380F0B006E0138F00B002644
:1003760001380F0B016E074E07EF02F0D8900132DD
:1003860000320832074E07EF02F0D89001320032F1
:100396000832074E07EF02F0D890013200320832D9
:1003A60007EF02F0030E0764F2EF01F0075E08386C
:1003B6000F0B086E0038F00B082600380F0B006E86
:1003C6000138F00B002601380F0B016E0238F00BD6
:1003D600012602380F0B026E074E07EF02F0D89087
:1003E6000232013200320832074E07EF02F0D8908F
:1003F6000232013200320832074E07EF02F0D8907F
:100406000232013200320832096A000E0EAEFBEFEC
:1004160002F0081E001E011E021E082A00220122EA
:100426000222FBEF02F00750D8A41CEF02F030EFD7
:1004360003F0096A02C00AF0028E068E0750035CBA
:10044600076ED8B4EEEF02F0070E0764BCEF02F0B9
:10045600075E0450096E0550046E0650056E066A66
:10046600074EEEEF02F0070E076491EF02F0075E0B
:100476000450096E0550046E056A074EEEEF02F051
:10048600070E07646FEF02F0075E0450096E046AF8
:10049600074EEEEF02F0070E076456EF02F00AC0B1
:1004A60002F030EF03F0030E076461EF02F0075E1F
:1004B60009380F0B096E074EEEEF02F0D89009329D
:1004C600074EEEEF02F0D8900932074EEEEF02F03B
:1004D600D8900932EEEF02F0030E076480EF02F0C7
:1004E600075E09380F0B096E0438F00B092604382D
:1004F6000F0B046E074EEEEF02F0D890043209326D
:10050600074EEEEF02F0D89004320932074EEEEFB6
:1005160002F0D89004320932EEEF02F0030E0764BF
:10052600A8EF02F0075E09380F0B096E0438F00BCE
:10053600092604380F0B046E0538F00B042605381F
:100546000F0B056E074EEEEF02F0D890053204321F
:100556000932074EEEEF02F0D89005320432093226
:10056600074EEEEF02F0D890053204320932EEEF74
:1005760002F0030E0764D9EF02F0075E09380F0B8D
:10058600096E0438F00B092604380F0B046E053883
:10059600F00B042605380F0B056E0638F00B052602
:1005A60006380F0B066E074EEEEF02F0D8900632B5
:1005B600053204320932074EEEEF02F0D8900632C9
:1005C600053204320932074EEEEF02F0D8900632B9
:1005D600053204320932086A000E0EAEFBEF02F055
:1005E600091E041E051E061E092A042205220622CD
:1005F6000950082604500022055001220650022206
:100606000EBE12EF03F0D8A021EF03F00232013242
:1006160000320832033E21EF03F02BEF03F0D8B08F
:1006260026EF03F0000E081E001E011E021E082AF9
:100636000022012202220A7E26EF03F0010E0C6E32
:100646000EDD32EF03F0020E0C6E09DD32EF03F021
:10065600040E0C6EF8DC32EF03F0000E0C6E120086
:100666000D6A086A0050D8B4000C04180A6E0ABE57
:100676000D1E0B6A04AE02D0041E042A00AE02D080
:10068600001E002A005004100A6E0ABE1FD0045035
:10069600085E003600340836045008260036060E7A
:1006A6000C6E00340836045000B0085E00A0082620
:1006B60000360C2EF6D700A008260BB015D00DAECE
:1006C600000C001E002A081E082A000C04AE09D0E1
:1006D60000BE04D00050086E006AF1D7006A002AF6
:1006E600000C001E0B2AD3D7082A0450085CD8A495
:0E06F600E6D7086A002A00AEE2D7FF0C120019
:100704000134083609360450085E0550D8A0053C6B
:10071400095E003601360F0E0C6E013408360936B8
:10072400045000A006D0085E0550D8A0053C095E20
:1007340005D008260550D8B0053C092600360136F8
:100744000C2EEBD700B006D0045008260550D8B0C4
:08075400053C0926000012001B
:10075C00086A096A000E0762036433EF04F0025062
:10076C0006180A6E075003267E0ED8A0C4EF03F0BD
:10077C00035ED8B038EF04F0C8EF03F0035ED8A0E6
:10078C003DEF04F0028E068E02C00EF001C00BF09D
:10079C0000C00DF000500402F4CF0CF00150050223
:1007AC00F4CF00F0F3CF08F00402F3500C26F45011
:1007BC000822000E00220D500502F3500C26F450B6
:1007CC000822000E002202500402F3500826F450B6
:1007DC00002202500502016A000E0122F35000268D
:1007EC00F45001220D500602F3500826F45000225A
:1007FC00026A000E012202220B500602F350002660
:10080C00F4500122000E02220E500602F350012673
:10081C00F450022202BE1BEF04F0083600360136FB
:10082C0002360306D8B43DEF04F02EEF04F0D88066
:10083C00800E08640030000E002201220222D8A093
:10084C002EEF04F0023201320032034A38EF04F08A
:10085C000AAE029E000E40EF04F0010E1FEC00F0F9
:10086C0040EF04F0020E26EC00F040EF04F0040E12
:06087C0012EC00F0120076
:100882000B800BAE4DEF04F0026A0AAEFF0E026E51
:0C089200016E006E0A360232FF0E1200EA
:08089E000B6A0B86FF0E12002D
:1008A600240E0C6EB50E0D6E0D2EFED70C2EFCD73B
:0608B6000000000012002A
:0A08BC00530E0D6E0D2EFED7120034
:1008C600086A080E0C6E003408360450085ED8B06C
:0E08D60002D00826D89000360C2EF5D712005E
:0C08E400000000000000000000001200F6
:1008F0000B6A0C6A0A6A086A0350D8B400EF05F064
:10090000028E9E0E035E03BE8BEF04F0D8B48BEF15
:1009100004F0F0EF04F0036C080E035CD8A0BDEF08
:1009200004F0036E083600C008F001C000F002C0F9
:1009300001F0026A080E035CD8A0BDEF04F0036E5C
:10094000083600C008F001C000F0016A080E035C20
:10095000D8A0BDEF04F0036E083600C008F0006AAE
:10096000080E035CD8A0BDEF04F0036E0836086AD9
:100970000350D8A4D890C9EF04F00350D8B4C9EFFD
:1009800004F0D8900232013200320832032EC1EF57
:1009900004F00BBC08A0DAEF04F0D8A0DAEF04F002
:1009A000082AD8B4002AD8B4012AD8B4022A02BE30
:1009B00004EF05F00AAE00EF05F0021E011E001E56
:1009C000081E082AD8B4002AD8B4012AD8B4022AAA
:1009D00000EF05F0026A016A006A086A00EF05F09C
:1009E0000B800BAE09EF05F0026A0AAE09EF05F0C5
:1009F000026E016E006E086E0A36023209EF05F0D3
:100A0000000E0C6A0AEF05F0010E0C6E3ADF0AEFD9
:100A100005F0FF0E0250036E0150026E0050016E91
:060A20000850006E1200F8
:100A26000B6A0C6A086A0350D8B497EF05F002C047
:100A36000AF0028E9E0E035E03AE87EF05F0036C8E
:100A4600080E035CD8A054EF05F0036E083600C00C
:100A560008F001C000F002C001F0026A080E035C53
:100A6600D8A054EF05F0036E083600C008F001C0A8
:100A760000F0016A080E035CD8A054EF05F0036E7F
:100A8600083600C008F0006A080E035CD8A054EFD0
:100A960005F0036E0836086A0350D8A4D89060EFB4
:100AA60005F00350D8B460EF05F0D8900232013259
:100AB60000320832032E58EF05F00BBC08A071EF88
:100AC60005F0D8A071EF05F0082AD8B4002AD8B4EA
:100AD600012AD8B4022A02BE9BEF05F00AAE97EFB0
:100AE60005F0021E011E001E081E082AD8B4002AA0
:100AF600D8B4012AD8B4022A97EF05F0026A016A2F
:100B0600006A086A97EF05F00B800BAEA1EF05F0BF
:100B1600026A0AAEA1EF05F0026E016E006E086E63
:100B26000A360232A1EF05F00C6A000EA2EF05F0BC
:100B3600010E0C6E000EA2DEA2EF05F0FF0E0250B3
:100B4600036E0150026E0050016E0850006E1200D6
:100B56006E0E0001605DD8A0C3D0640E046E60C046
:100B660000F0AEDE120E0024056E066A000E0622A6
:100B760005C000F006C001F0000E06BEFF0E026EB4
:100B8600036E0036009001360236033600360090BA
:100B9600013602360336000E0024F66E3E0E0120A4
:100BA600F76E000E0220F86E0900F5CF00F009007E
:100BB600F5CF01F00900F5CF02F00900F5CF03F0FB
:100BC600000E046E000E056E000E066E7E0E076E9B
:100BD600C2DD00C073F001C074F002C075F003C03E
:100BE60076F0640E046E60C000F06ADE08C000F0A5
:100BF6000A0E046E65DE090E0024056E066A000EF6
:100C0600062205C000F006C001F0000E06BEFF0E6B
:100C1600026E036E00360090013602360336003649
:100C26000090013602360336000E0024F66E3E0EA4
:100C36000120F76E000E0220F86E0900F5CF00F0D5
:100C46000900F5CF01F00900F5CF02F00900F5CF54
:100C560003F073C004F074C005F075C006F076C0EA
:100C660007F079DD00C073F001C074F002C075F0C2
:100C760003C076F00A0E046E60C000F021DE08C0E4
:100C860000F000C001F0000E026E036E046E013625
:100C960001900236033604360136019002360336D9
:100CA6000436000E0124F66E3E0E0220F76E000E8C
:100CB6000320F86E0900F5CF00F00900F5CF01F02A
:100CC6000900F5CF02F00900F5CF03F073C004F078
:100CD60074C005F075C006F076C007F03CDDACD0F8
:100CE60060510A08D8B07AD00A0E046E60C000F0CF
:100CF600E7DD090E0024056E066A000E062205C011
:100D060000F006C001F0000E06BEFF0E026E036E76
:100D16000036009001360236033600360090013662
:100D260002360336000E0024F66E3E0E0120F76EE4
:100D3600000E0220F86E0900F5CF00F00900F5CF8D
:100D460001F00900F5CF02F00900F5CF03F0000E1F
:100D5600046E000E056E000E066E7E0E076EFBDC40
:100D660000C073F001C074F002C075F003C076F0E5
:100D76000A0E046E60C000F0A3DD08C000F000C0DB
:100D860001F0000E026E036E046E0136019002360B
:100D96000336043601360190023603360436000E59
:100DA6000124F66E3E0E0220F76E000E0320F86E4A
:100DB6000900F5CF00F00900F5CF01F00900F5CFE5
:100DC60002F00900F5CF03F073C004F074C005F01B
:100DD60075C006F076C007F0BEDC2ED060C000F00D
:100DE600000E016E026E036E00360090013602366A
:100DF600033600360090013602360336000E002414
:100E0600F66E3E0E0120F76E000E0220F86E090007
:100E1600F5CF00F00900F5CF01F00900F5CF02F09B
:100E26000900F5CF03F0000E046E000E056E000EED
:0A0E3600066E7E0E076E8FDC1200C0
:100E40000B6A0A6A096A086A0E6A03340836045093
:100E5000085E0550D8A0053C095E0650D8A0063CA7
:100E60000A5E0750D8A0073C0B5EE86AD8A0010EC6
:100E70000E5E0336070E0C6E0334083609360A364A
:100E80000B360E36045003A012D0085E0550D8A0D1
:100E9000053C095E0650D8A0063C0A5E0750D8A063
:100EA000073C0B5EE86AD8A0010E0E5E11D0082642
:100EB0000550D8B0053C09260650D8B0063C0A2695
:100EC0000750D8B0073C0B26E86AD8B0010E0E26B2
:100ED00003360C2ED1D70234083609360A360B36C3
:100EE0000E36045003A012D0085E0550D8A0053C71
:100EF000095E0650D8A0063C0A5E0750D8A0073C01
:100F00000B5EE86AD8A0010E0E5E11D008260550CF
:100F1000D8B0053C09260650D8B0063C0A26075032
:100F2000D8B0073C0B26E86AD8B0010E0E26023670
:100F3000070E0C6E0234083609360A360B360E36AA
:100F4000045002A012D0085E0550D8A0053C095EEE
:100F50000650D8A0063C0A5E0750D8A0073C0B5E9E
:100F6000E86AD8A0010E0E5E11D008260550D8B050
:100F7000053C09260650D8B0063C0A260750D8B0D2
:100F8000073C0B26E86AD8B0010E0E2602360C2E5E
:100F9000D1D70134083609360A360B360E360450DE
:100FA00002A012D0085E0550D8A0053C095E06508C
:100FB000D8A0063C0A5E0750D8A0073C0B5EE86A42
:100FC000D8A0010E0E5E11D008260550D8B0053C01
:100FD00009260650D8B0063C0A260750D8B0073C70
:100FE0000B26E86AD8B0010E0E260136070E0C6EED
:100FF0000134083609360A360B360E36045001A085
:1010000012D0085E0550D8A0053C095E0650D8A055
:10101000063C0A5E0750D8A0073C0B5EE86AD8A0E1
:10102000010E0E5E11D008260550D8B0053C0926E9
:101030000650D8B0063C0A260750D8B0073C0B260D
:10104000E86AD8B0010E0E2601360C2ED1D7003436
:10105000083609360A360B360E36045001A012D077
:10106000085E0550D8A0053C095E0650D8A0063C95
:101070000A5E0750D8A0073C0B5EE86AD8A0010EB4
:101080000E5E11D008260550D8B0053C0926065042
:10109000D8B0063C0A260750D8B0073C0B26E86AB1
:1010A000D8B0010E0E260036070E0C6E003408363E
:1010B00009360A360B360E36045000A012D0085EF0
:1010C0000550D8A0053C095E0650D8A0063C0A5E33
:1010D0000750D8A0073C0B5EE86AD8A0010E0E5E50
:1010E00011D008260550D8B0053C09260650D8B0C6
:1010F000063C0A260750D8B0073C0B26E86AD8B051
:10110000010E0E2600360C2ED1D700B00ED00450A2
:1011100008260550D8B0053C09260650D8B0063C34
:0C1120000A260750D8B0073C0B2612002E
:10112C0000016051390806E3300E605D03E3010EE7
:08113C00006E01D0006A1200F0
:10114400800E00016019006E800E000A005CD8B0A9
:101154006DD160510008016E01C060F0800E01186D
:10116400006E800E6E0A005CD8A0C0D0640E046EBF
:1011740060C000F033EC03F0120E0024056E000E84
:1011840000BEFF0E066E000E062205C000F006C06B
:1011940001F0000E06BEFF0E026E036E00360090D4
:1011A4000136023603360036009001360236033625
:1011B400000E0024F66E3E0E0120F76E000E022093
:1011C400F86E0900F5CF73F00900F5CF74F009004B
:1011D400F5CF75F00900F5CF76F0640E046E60C0AB
:1011E40000F033EC03F008C000F00A0E046E33EC98
:1011F40003F0090E0024056E000E00BEFF0E066EFD
:10120400000E062205C000F006C001F0000E06BE66
:10121400FF0E026E036E003600900136023603366E
:1012240000360090013602360336000E0024F66EB6
:101234003E0E0120F76E000E0220F86E0900F5CF75
:1012440000F00900F5CF01F00900F5CF02F0090024
:10125400F5CF03F073C004F074C005F075C006F058
:1012640076C007F0AEEC03F000C073F001C074F078
:1012740002C075F003C076F00A0E046E60C000F080
:1012840033EC03F008C000F000C001F0000E00BE13
:10129400FF0E026E036E046E0136019002360336B1
:1012A400043601360190023603360436000E01245A
:1012B400F66E3E0E0220F76E000E0320F86E090053
:1012C400F5CF00F00900F5CF01F00900F5CF02F0E9
:1012D4000900F5CF03F073C004F074C005F075C0C5
:1012E40006F076C007F0AEEC03F007D2800E0A0ACF
:1012F400006E800E6019005C71E20A0E046E60C01C
:1013040000F033EC03F0090E0024056E000E00BE5D
:10131400FF0E066E000E062205C000F006C001F0A6
:10132400000E06BEFF0E026E036E003600900136FC
:101334000236033600360090013602360336000EBC
:101344000024F66E3E0E0120F76E000E0220F86EA9
:101354000900F5CF73F00900F5CF74F00900F5CF5B
:1013640075F00900F5CF76F00A0E046E60C000F047
:1013740033EC03F008C000F000C001F0000E00BE22
:10138400FF0E026E036E046E0136019002360336C0
:10139400043601360190023603360436000E012469
:1013A400F66E3E0E0220F76E000E0320F86E090062
:1013B400F5CF00F00900F5CF01F00900F5CF02F0F8
:1013C4000900F5CF03F073C004F074C005F075C0D4
:1013D40006F076C007F0AEEC03F08FD160C000F0E9
:1013E400000E60BFFF0E016E026E036E00360090A9
:1013F40001360236033600360090013602360336D3
:10140400000E0024F66E3E0E0120F76E000E022040
:10141400F86E0900F5CF00F00900F5CF01F00900DE
:10142400F5CF02F00900F5CF03F067D1800E601903
:10143400006E800E6E0A005CD8A0C0D0640E046EEC
:1014440060C000F033EC03F0120E0024056E000EB1
:1014540000BEFF0E066E000E062205C000F006C098
:1014640001F0000E06BEFF0E026E036E0036009001
:101474000136023603360036009001360236033652
:10148400340E0024F66E3E0E0120F76E000E02208C
:10149400F86E0900F5CF73F00900F5CF74F0090078
:1014A400F5CF75F00900F5CF76F0640E046E60C0D8
:1014B40000F033EC03F008C000F00A0E046E33ECC5
:1014C40003F0090E0024056E000E00BEFF0E066E2A
:1014D400000E062205C000F006C001F0000E06BE94
:1014E400FF0E026E036E003600900136023603369C
:1014F40000360090013602360336340E0024F66EB0
:101504003E0E0120F76E000E0220F86E0900F5CFA2
:1015140000F00900F5CF01F00900F5CF02F0090051
:10152400F5CF03F073C004F074C005F075C006F085
:1015340076C007F0AEEC03F000C073F001C074F0A5
:1015440002C075F003C076F00A0E046E60C000F0AD
:1015540033EC03F008C000F000C001F0000E00BE40
:10156400FF0E026E036E046E0136019002360336DE
:10157400043601360190023603360436340E012453
:10158400F66E3E0E0220F76E000E0320F86E090080
:10159400F5CF00F00900F5CF01F00900F5CF02F016
:1015A4000900F5CF03F073C004F074C005F075C0F2
:1015B40006F076C007F0AEEC03F09FD0800E0A0A66
:1015C400006E800E6019005C71E20A0E046E60C049
:1015D40000F033EC03F0090E0024056E000E00BE8B
:1015E400FF0E066E000E062205C000F006C001F0D4
:1015F400000E06BEFF0E026E036E0036009001362A
:101604000236033600360090013602360336340EB5
:101614000024F66E3E0E0120F76E000E0220F86ED6
:101624000900F5CF73F00900F5CF74F00900F5CF88
:1016340075F00900F5CF76F00A0E046E60C000F074
:1016440033EC03F008C000F000C001F0000E00BE4F
:10165400FF0E026E036E046E0136019002360336ED
:10166400043601360190023603360436340E012462
:10167400F66E3E0E0220F76E000E0320F86E09008F
:10168400F5CF00F00900F5CF01F00900F5CF02F025
:101694000900F5CF03F073C004F074C005F075C001
:1016A40006F076C007F0AEEC03F027D060C000F07F
:1016B400000E60BFFF0E016E026E036E00360090D6
:1016C4000136023603360036009001360236033600
:1016D400340E0024F66E3E0E0120F76E000E02203A
:1016E400F86E0900F5CF00F00900F5CF01F009000C
:0C16F400F5CF02F00900F5CF03F0120062
:1017000003500718D8A494EF0BF002500618D8A481
:1017100094EF0BF001500518D8A494EF0BF0005093
:0E1720000418D8B4D8841200D8941200120015
:10172E000A6A0350D8A40A800750D8A40A820A5025
:10173E00D8B4FAEF0BF0030AD8B4B3EF0BF00AB03B
:10174E00AEEF0BF006AEF8EF0BF0F6EF0BF002AECD
:10175E00F6EF0BF0F8EF0BF00250800B0A6E029EC4
:10176E000650800B069E0A18D8B4C4EF0BF00A5030
:10177E00D8B4F6EF0BF0F8EF0BF00750035CD8B4CB
:10178E00CEEF0BF0D8A0EAEF0BF0F0EF0BF0065017
:10179E00025CD8B4D8EF0BF0D8A0EAEF0BF0F0EF64
:1017AE000BF00550015CD8B4E2EF0BF0D8A0EAEFD5
:1017BE000BF0F0EF0BF00450005CD8B4FAEF0BF026
:1017CE00D8B0F0EF0BF00A52D8B4F8EF0BF0F6EFFA
:1017DE000BF00A52D8B4F6EF0BF0F8EF0BF0D880FE
:0E17EE001200D8901200D880D8841200120089
:1017FC000450000A08E10550000A05E1FF0E006ED6
:10180C007F0E016E58D00D6A096A086A01500010EB
:10181C00D8B4000C015005180A6E0ABE0D1E0B6AD6
:10182C0005AE05D0041E051E042AD8B4052A01AE47
:10183C0005D0001E011E002AD8B4012A0150051043
:10184C000A6E0ABE10D082EC03F00BB020D00DAEA5
:10185C00000C001E011E002AD8B4012A081E091E05
:10186C00082AD8B4092A000C05AE0DD001BE07D049
:10187C000150096E0050086E016A006AE8D7016ACF
:10188C00006A002A000C011E001E0B2ADDD7082A54
:10189C00D8B4092A0450085CD8A4D9D70550095CDF
:1018AC00D8A4D5D7096A086A002AD8B4012A01AE8F
:0818BC00CED70000FF0C120062
:0818C400067E23EC01F0120086
:1018CC00000160BF02D0839E01D0838E60BD02D028
:1018DC00839C01D0838C60BB02D0839A01D0838A15
:1018EC0060B902D0839801D083883EB002D0838047
:1018FC0001D08390838272EC04F0839260B702D0A3
:10190C00839E01D0838E60B502D0839C01D0838CE2
:10191C0060B302D0839A01D0838A60B102D08398DD
:10192C0001D083883EB002D0838001D08390838223
:10193C0072EC04F083923EA003D053EC04F002D07E
:06194C005EEC04F0120045
:101952000050086E0150006E0250016E0350026E7C
:10196200036A0B6A0C6A9E0E036E0A6A020E0C6E02
:0619720032EC00F012004F
:101978000450000A12E10550000A0FE10650000A5F
:101988000CE10750000A09E1FF0E006EFF0E016E20
:101998007F0E026EFF0E036EA8D0086A096A075010
:1019A800D8B467EF0DF00350D8B46CEF0DF00250C7
:1019B80006180A6E028E068E0E6A02C008F001C072
:1019C8000CF000C00DF004500D5E0550D8A0053C89
:1019D8000C5E0650D8A0063C085E086A0C6A0D6AC0
:1019E800D8A0FEEF0CF0D890023201320032083253
:1019F800010E0E6E0750035ED8A00BEF0DF07E0EA1
:101A08000E240326D8B071EF0DF011EF0DF07E0E05
:101A18000E240326D8A076EF0DF0180E0B6E0D36A7
:101A28000C3608360036013602360E360450005E93
:101A38000550D8A0053C015E0650D8A0063C025EC1
:101A480006340E120EA02CEF0DF00D8037EF0DF0BE
:101A5800045000260550D8B0053C01260650D8B0E1
:101A6800062802260D900B2E13EF0DF05DEF0DF0FA
:101A7800D8900036013602360E360450005E055006
:101A8800D8A0053C015E0650D8A0063C025E06348C
:101A98000E10010B0D26D8B00C2AD8B4082AD8A4E9
:101AA8005DEF0DF008320C320D32032AD8B471EF15
:101AB8000DF00AAE089E0850026E0C50016E0D50D3
:101AC800006E79EF0DF0010E4FEC04F079EF0DF098
:101AD800020E1FEC00F079EF0DF0040E26EC00F07A
:0C1AE80079EF0DF0080E12EC00F0120077
:101AF4000B6A0A6A096A00500402F4CF09F0F3CFB2
:101B040008F001500502F4CF0BF0F3CF0AF00050B7
:101B14000502F3500926F4500A22E86A0B22015008
:101B24000402F3500926F4500A22E86A0B2208C082
:101B340000F009C001F00AC002F00BC003F012006B
:0C1B44003E904AC060F0C0DE3E801200FF
:101B500000016B6B6C6B5E6A5F6A4CC000F04DC03D
:101B600001F04EC002F0010E4C26000E4D224E2216
:101B700000C0F6FF01C0F7FF02C0F8FF0900F5CF73
:101B800000F000C05BF00052D8B4D7EF1DF05B50FE
:101B9000250A0CE000014AC0E1FF4BC0E2FF5BC038
:101BA000E6FF4A4A4B2A6B4B6C2BD7D75C6A5D6ABF
:101BB0005E6A5F6A23D05E86010E4C26000E4D22BF
:101BC0004E2259D05E80010E4C26000E4D224E2230
:101BD00052D05E82010E4C26000E4D224E224BD07A
:101BE0005F86010E4C26000E4D224E2244D05E84AC
:101BF000010E4C26000E4D224E223DD04CC0F6FF69
:101C00004DC0F7FF4EC0F8FF0900F5CF01F00150BD
:101C10002D0AD1E04CC0F6FF4DC0F7FF4EC0F8FFD3
:101C20000900F5CF01F00150200ACCE04CC0F6FFCE
:101C30004DC0F7FF4EC0F8FF0900F5CF01F001508D
:101C40002B0AC7E04CC0F6FF4DC0F7FF4EC0F8FFAF
:101C50000900F5CF01F00150230AC2E04CC0F6FFA5
:101C60004DC0F7FF4EC0F8FF0900F5CF01F001505D
:101C7000300ABDE001D09ED75EB25E905EB65E9443
:101C80004CC0F6FF4DC0F7FF4EC0F8FF0900F5CF7E
:101C900000F0000E016E00C060F096EC08F00052FB
:101CA00035E05C6A5D6A5CC000F05DC001F00A0E60
:101CB000046E000E056E1EDF4CC0F6FF4DC0F7FF30
:101CC0004EC0F8FF0900F5CF02F0025000245C6E10
:101CD000000E01205D6E300E5C5E000E5D5A010E3E
:101CE0004C26000E4D224E224CC0F6FF4DC0F7FF91
:101CF0004EC0F8FF0900F5CF00F0000E016E00C0E5
:101D000060F096EC08F00052CEE133D04CC0F6FF04
:101D10004DC0F7FF4EC0F8FF0900F5CF01F00150AC
:101D20002A0A27E14FC0E9FF50C0EAFFEECF00F0DA
:101D3000EECF01F000C0E9FF01C0EAFFEECF5CF09A
:101D4000EECF5DF04FC0E9FF50C0EAFF020EEE2477
:101D5000006E000EEE20016E4FC0E1FF50C0E2FFAA
:101D600000C0E6FF01C0E6FF010E4C26000E4D222A
:101D70004E224CC0F6FF4DC0F7FF4EC0F8FF0900E1
:101D8000F5CF01F001502E0A6FE1010E4C26000E36
:101D90004D224E224CC0F6FF4DC0F7FF4EC0F8FF5B
:101DA0000900F5CF01F001502A0A28E14FC0E9FFF0
:101DB00050C0EAFFEECF00F0EECF01F000C0E9FF27
:101DC00001C0EAFFEECF59F0EECF5AF04FC0E9FF65
:101DD00050C0EAFF020EEE24006E000EEE20016EEF
:101DE0004FC0E1FF50C0E2FF00C0E6FF01C0E6FFC8
:101DF000010E4C26000E4D224E2235D0596A5A6AE9
:101E00004CC0F6FF4DC0F7FF4EC0F8FF0900F5CFFC
:101E100000F0000E016E00C060F096EC08F0005279
:101E200022E059C000F05AC001F00A0E046E000E04
:101E3000056E60DE4CC0F6FF4DC0F7FF4EC0F8FFE8
:101E40000900F5CF02F002500024596E000E012067
:101E50005A6E300E595E000E5A5A010E4C26000E74
:101E60004D224E22CDD703D0596A5A6A5F884CC0A2
:101E700000F04DC001F04EC002F0010E4C26000EE5
:101E80004D224E2200C0F6FF01C0F7FF02C0F8FF4E
:101E90000900F5CF5BF0FBD06BC000F06CC001F027
:101EA000DBEF1DF05E88E3D75F8430D15E8A5F8010
:101EB0002DD15F822BD15E8C29D128D15E8A5E8E96
:101EC00025D100014FC0E9FF50C0EAFFEECF00F07E
:101ED000EECF01F000C0E9FF01C0EAFFEECF67F0EE
:101EE000EECF68F04FC0E9FF50C0EAFF020EEE24CB
:101EF000006E000EEE20016E4FC0E1FF50C0E2FF09
:101F000000C0E6FF01C0E6FF000E681902E1000E06
:101F1000671904E1350E676F000E686F696B6A6BB5
:101F200069516725E96E6A516821EA6EEE520BE04D
:101F3000010E6925006E000E6A21016E00C069F075
:101F400001C06AF0EDD759505A100AE06A515A5C44
:101F500002E16951595C04E259C069F05AC06AF063
:101F60005D506A5D02E15C50695D05E269515C5E4D
:101F70006A515D5A02D05C6A5D6A5EB616D05CC07A
:101F800000F05DC001F0010E5C5E000E5D5A005075
:101F900001100BE04AC0E1FF4BC0E2FF200EE66EED
:101FA0004A4A4B2A6B4B6C2BEAD769C002F06AC0D5
:101FB00003F0010E695D006E000E6A59016E00C0EB
:101FC00069F001C06AF00250031019E067C0E9FF30
:101FD00068C0EAFF4AC0E1FF4BC0E2FFEECFE6FF78
:101FE0004A4A4B2A010E6725006E000E6821016ED9
:101FF00000C067F001C068F06B4B6C2BD6D75EA6B3
:1020000016D05CC000F05DC001F0010E5C5E000EF9
:102010005D5A005001100BE04AC0E1FF4BC0E2FFE7
:10202000200EE66E4A4A4B2A6B4B6C2BEAD795D5AD
:102030004FC0E9FF50C0EAFFEECF00F0EECF01F055
:1020400000C0E9FF01C0EAFFEECF5BF04FC0E9FF3F
:1020500050C0EAFF020EEE24006E000EEE20016E6C
:102060004FC0E1FF50C0E2FF00C0E6FF01C0E6FF45
:1020700000015B0E676F000E686F010E696F000E46
:102080006A6F61D7C00E5E12000E5F123FD05B50C8
:10209000000AD8B401D75B506C0AD8B403D75B50A0
:1020A0004C0AD8B4FFD65B50660AD8B4FDD65B5054
:1020B000450AD8B4FBD65B50650AD8B4F8D65B5055
:1020C000670AD8B4F6D65B506F0AD8B4F4D65B5022
:1020D000640AD8B4F2D65B50690AD8B4EED65B5025
:1020E000700AD8B4EBD65B50580AD8B4E7D65B5028
:1020F000780AD8B4E4D65B50730AD8B4E2D65B5001
:10210000630A96E05B50750ABDE0B2D7000E5E141C
:10211000006E5F50070B016E00500110D8B46AEFDB
:1021200019F05FA804D0060E596E000E5A6E4FC00B
:10213000E9FF50C0EAFFEECF00F0EECF01F000C0A3
:10214000E9FF01C0EAFFEECF61F0EECF62F0EECF23
:1021500063F0EECF64F04FC0E9FF50C0EAFF040E19
:10216000EE24006E000EEE20016E4FC0E1FF50C065
:10217000E2FF00C0E6FF01C0E6FF046A056A066AE6
:10218000076A61C000F062C001F063C002F064C081
:1021900003F097EC0BF0010ED8B0000E006E005269
:1021A00006E00001637F030E5E12000E5F12000165
:1021B000656B666B61C000F062C001F063C002F045
:1021C00064C003F0046A056A066A076A80EC0BF0D3
:1021D000000ED8A4010E006E0052D8B489D064C09D
:1021E00000F0016A026A036AFF0E0016000E011673
:1021F0007E0E005E000E015A00C065F001C066F060
:10220000010E005E000E015A00C065F001C066F0CC
:10221000030E046E000E056E6DDC00C065F001C09B
:1022200066F00A0E046E000E056EFEEC0BF000C0A8
:1022300065F001C066F0800E0118026E800E025C2F
:1022400002E1000E005C05E2010E0001655F000E78
:10225000665B000165510008606FA2EC08F061C088
:1022600004F062C005F063C006F064C007F0AEEC95
:1022700003F000C067F001C068F002C069F003C05D
:102280006AF0000E046E000E056E000E066E7F0EE4
:10229000076E67C000F068C001F069C002F06AC054
:1022A00003F097EC0BF0010ED8B0000E006E005258
:1022B00005E0010E655F000E665B1AD0000E046E2D
:1022C000000E056E200E066E820E076E67C000F0CF
:1022D00068C001F069C002F06AC003F097EC0BF02F
:1022E000000ED8B0010E006E005202E0654B662B66
:1022F000800E006E800E6619005C02E165510008D8
:1023000003E3010E5B6E02D065C05BF05FB018D0D6
:102310005FA215D0800E6619006E7F0E005C02E190
:10232000FC0E655D0BE3800E6619006E800E5A1878
:10233000005C02E15950655D01E201D001D0F5D3A6
:1023400059505A1006E05FA204D0010E595E000EEB
:102350005A5A5A50000802E15950080803E2080E80
:102360005B6E02D059C05BF061C000F062C001F04A
:1023700063C002F064C003F0046A056A066A076A73
:1023800080EC0BF0000ED8A4010E006E0052D8B401
:102390004AD165C060F0A2EC08F000C004F001C0B2
:1023A00005F002C006F003C007F061C000F062C093
:1023B00001F063C002F064C003F0BCEC0CF000C09C
:1023C00061F001C062F002C063F003C064F05B50D2
:1023D00000080001606FA2EC08F000C004F001C02A
:1023E00005F002C006F003C007F061C000F062C053
:1023F00001F063C002F064C003F0BCEC0CF000C05C
:102400006DF001C06EF002C06FF003C070F06DC0DF
:1024100061F06EC062F06FC063F070C064F06DC0B8
:1024200000F06EC001F06FC002F070C003F078ECF5
:1024300004F0A9EC0CF000C004F001C005F002C0EB
:1024400006F003C007F06DC000F06EC001F06FC071
:1024500002F070C003F062EC0CF0000E046E000E8F
:10246000056E000E066E7E0E076E97EC0BF0000EEA
:10247000D8B0010E006E00521AE061C000F062C0D8
:1024800001F063C002F064C003F0000E046E000EA1
:10249000056E000E066E7E0E076E23EC01F000C086
:1024A00061F001C062F002C063F003C064F061C07B
:1024B00000F062C001F063C002F064C003F078EC89
:1024C00004F05B50010F096E0A6A000E0A2209C06F
:1024D00004F00AC005F0000E0ABEFF0E066E076E7D
:1024E0000436049005360636073604360490053661
:1024F00006360736980E0424F66E3E0E0520F76E5B
:10250000000E0620F86E0900F5CF05F00900F5CFA2
:1025100006F00900F5CF07F00900F5CF08F00850E4
:10252000035C08E10750025C05E10650015C02E132
:102530000550005C1EE361C000F062C001F063C0A2
:1025400002F064C003F0CD0E046ECC0E056E4C0E8E
:10255000066E7B0E076EAEEC03F000C061F001C0AA
:1025600062F002C063F003C064F00001654B662BAB
:102570005AD061C000F062C001F063C002F064C0D4
:1025800003F078EC04F05BC004F0000E056E066EFC
:10259000076E043604900536063607360436049076
:1025A000053606360736980E0424F66E3E0E0520D4
:1025B000F76E000E0620F86E0900F5CF05F0090051
:1025C000F5CF06F00900F5CF07F00900F5CF08F0C8
:1025D0000850035C08E10750025C05E10650015C0D
:1025E00002E10550005C1FE2000161C000F062C022
:1025F00001F063C002F064C003F0000E046E000E30
:10260000056E200E066E820E076EAEEC03F000C063
:1026100061F001C062F002C063F003C064F0010E1B
:10262000655F000E665B5FA295D05FB693D0800EAB
:10263000000A006E800E5A18005C02E159500A0828
:1026400004E20A0E596E000E5A6E61C000F062C0BC
:1026500001F063C002F064C003F078EC04F000C045
:1026600067F001C068F002C069F003C06AF00001C1
:102670006751681169116A1142E00A0E046E000E7A
:10268000056E066E076E67C000F068C001F069C095
:1026900002F06AC003F020EC07F008C000F009C0A7
:1026A00001F00AC002F00BC003F0000E046E031824
:1026B00008E10450021805E10450011802E100503D
:1026C000000A1DE1010E595E000E5A5A0A0E046EF0
:1026D000000E056E066E076E67C000F068C001F060
:1026E00069C002F06AC003F020EC07F000C067F098
:1026F00001C068F002C069F003C06AF0B8D7800E6C
:102700005A18006E800E005C02E15B50595C22E2B8
:10271000000159505B5C606FA2EC08F000C004F04F
:1027200001C005F002C006F003C007F061C000F070
:1027300062C001F063C002F064C003F0BCEC0CF0B6
:1027400000C061F001C062F002C063F003C064F039
:1027500059C05BF0050E5924006E000E5A20016E20
:1027600000505C5E01505D5A59505A1003E15FB64B
:1027700001D004D0010E5C5E000E5D5A030E5E14A3
:10278000006E5FC001F0000E01160050011004E061
:10279000010E5C5E000E5D5A5EA43CD05EA213D0BA
:1027A0005EA003D02D0E516E02D02B0E516E4AC08A
:1027B000E1FF4BC0E2FF51C0E6FF4A4A4B2A00014D
:1027C0006B4B6C2B0DD05EA00BD000014AC0E1FF1B
:1027D0004BC0E2FF200EE66E4A4A4B2A6B4B6C2B35
:1027E000800E006E800E5D18005C02E15C500008F7
:1027F00010E200014AC0E1FF4BC0E2FF300EE66E7E
:102800004A4A4B2A6B4B6C2B010E5C5E000E5D5AE4
:10281000E7D73DD05EB619D0800E006E800E5D18F1
:10282000005C02E15C50000810E200014AC0E1FFD8
:102830004BC0E2FF200EE66E4A4A4B2A6B4B6C2BD4
:10284000010E5C5E000E5D5AE7D75EA213D05EA05B
:1028500003D02D0E526E02D02B0E526E00014AC0D4
:10286000E1FF4BC0E2FF52C0E6FF4A4A4B2A6B4BE6
:102870006C2B0DD05EA00BD000014AC0E1FF4BC015
:10288000E2FF200EE66E4A4A4B2A6B4B6C2B00018E
:1028900061C000F062C001F063C002F064C003F0E8
:1028A00078EC04F000C067F001C068F002C069F085
:1028B00003C06AF05BC000F0000E016E026E036E92
:1028C000003600900136023603360036009001369D
:1028D00002360336980E0024F66E3E0E0120F76E87
:1028E000000E0220F86E0900F5CF04F00900F5CFC4
:1028F00005F00900F5CF06F00900F5CF07F067C035
:1029000000F068C001F069C002F06AC003F020EC7A
:1029100007F0300E00264AC0E1FF4BC0E2FF00C0C6
:10292000E6FF4A4A4B2A6B4B6C2B59505A1003E175
:102930005FB601D06FD04AC0E1FF4BC0E2FF2E0E60
:10294000E66E4A4A4B2A6B4B6C2B5B50595E000E6D
:102950005A5A5B524DE05B065BC000F0000E016E00
:10296000026E036E003600900136023603360036E2
:102970000090013602360336980E0024F66E3E0EA5
:102980000120F76E000E0220F86E0900F5CF04F06A
:102990000900F5CF05F00900F5CF06F00900F5CFE5
:1029A00007F067C000F068C001F069C002F06AC0BB
:1029B00003F020EC07F00A0E046E000E056E066EA2
:1029C000076E20EC07F008C000F009C001F00AC053
:1029D00002F00BC003F0300E00264AC0E1FF4BC0EE
:1029E000E2FF00C0E6FF4A4A4B2A6B4B6C2BB1D783
:1029F00059505A100FE04AC0E1FF4BC0E2FF300EC1
:102A0000E66E4A4A4B2A6B4B6C2B010E595E000E48
:102A10005A5AEED75EAA0BD04AC0E1FF4BC0E2FF84
:102A2000450EE66E4A4A4B2A6B4B6C2B0AD04AC0C5
:102A3000E1FF4BC0E2FF650EE66E4A4A4B2A6B4B44
:102A40006C2B800E6619006E800E005C02E1000E99
:102A5000655D11E265510008656F6651000E6657AD
:102A60004AC0E1FF4BC0E2FF2D0EE66E4A4A4B2AF8
:102A70006B4B6C2B0AD04AC0E1FF4BC0E2FF2B0E20
:102A8000E66E4A4A4B2A6B4B6C2B0A0E046E000E04
:102A9000056E65C000F066C001F0FEEC0BF0300E74
:102AA00000264AC0E1FF4BC0E2FF00C0E6FF4A4AF1
:102AB0004B2A00016B4B6C2B0A0E046E000E056E48
:102AC00065C000F066C001F0FEEC0BF008C000F03D
:102AD00009C001F0300E00264AC0E1FF4BC0E2FF02
:102AE00000C0E6FF4A4A4B2A00016B4B6C2B5EA6E6
:102AF0001AD0800E006E800E5D18005C02E15C5002
:102B0000000811E24AC0E1FF4BC0E2FF200EE66E72
:102B10004A4A4B2A6B4B6C2B010E5C5E000E5D5AD1
:102B20005C505D10EFE1ADEF0DF05FA2F3D0800ED1
:102B30006619006E800E005C02E1000E655D0AE21F
:102B4000010E655D006E000E6659016E0050595E03
:102B500001505A5A61C000F062C001F063C002F037
:102B600064C003F078EC04F000C067F001C068F0C6
:102B700002C069F003C06AF0010E5B6E5B500A0A86
:102B800034E05BC000F0000E016E026E036E003692
:102B900000900136023603360036009001360236C8
:102BA0000336980E0024F66E3E0E0120F76E000EDE
:102BB0000220F86E0900F5CF01F00900F5CF02F010
:102BC0000900F5CF03F00900F5CF04F004506A5D69
:102BD00008E10350695D05E10250685D02E10150C2
:102BE000675D01E202D05B2AC9D75B50595C716F07
:102BF000000E5A58726F71C059F072C05AF067C017
:102C000000F068C001F069C002F06AC003F0A9ECEE
:102C10000CF000C004F001C005F002C006F003C0D3
:102C200007F061C000F062C001F063C002F064C050
:102C300003F062EC0CF000C06DF001C06EF002C059
:102C40006FF003C070F071C060F0A2EC08F06DC0CE
:102C500004F06EC005F06FC006F070C007F0AEEC77
:102C600003F0000E046E000E056E000E066E7E0E62
:102C7000076E23EC01F078EC04F000C067F001C0AF
:102C800068F002C069F003C06AF059505A1042E07F
:102C90000A0E046E000E056E066E076E67C000F029
:102CA00068C001F069C002F06AC003F020EC07F0D0
:102CB00008C000F009C001F00AC002F00BC003F028
:102CC000000E046E031808E10450021805E10450D8
:102CD000011802E10050000A1DE10A0E046E000E08
:102CE000056E066E076E67C000F068C001F069C02F
:102CF00002F06AC003F020EC07F000C067F001C0EA
:102D000068F002C069F003C06AF0010E595E000E5F
:102D10005A5ABBD7800E006E800E5A18005C02E132
:102D200059500C0816E359C060F0ABEC05F061C0D7
:102D300004F062C005F063C006F064C007F023EC45
:102D400001F000C061F001C062F002C063F003C096
:102D500064F061C000F062C001F063C002F064C0C2
:102D600003F0046A056A066A076A80EC0BF0000E3D
:102D7000D8A4010E006E0052D8B477D061C000F024
:102D800062C001F063C002F064C003F078EC04F0AC
:102D9000000E046E031808E10450021805E1045007
:102DA000011802E10050000A60E1800E006E800E02
:102DB0006619005C02E16551010857E265C060F0E8
:102DC000A2EC08F000C004F001C005F002C006F05B
:102DD00003C007F061C000F062C001F063C002F000
:102DE00064C003F0BCEC0CF05F0E046E700E056E58
:102DF000090E066E810E076E97EC0BF0010ED8B02F
:102E0000000E006E005206E0090E0001655F000E24
:102E1000665B05D00001080E655F000E665B65C04D
:102E200060F0A2EC08F000C004F001C005F002C0A0
:102E300006F003C007F061C000F062C001F063C09B
:102E400002F064C003F0BCEC0CF078EC04F000C0BD
:102E500067F001C068F002C069F003C06AF00001C9
:102E6000616B626B636B646B39D0000161C000F011
:102E700062C001F063C002F064C003F078EC04F0BB
:102E800000C067F001C068F002C069F003C06AF0DA
:102E900067C000F068C001F069C002F06AC003F0CA
:102EA000A9EC0CF000C004F001C005F002C006F06F
:102EB00003C007F061C000F062C001F063C002F01F
:102EC00064C003F062EC0CF000C061F001C062F07D
:102ED00002C063F003C064F0656B666B010E5B6E4D
:102EE0005B500A0A34E05BC000F0000E016E026E17
:102EF000036E00360090013602360336003600902D
:102F0000013602360336980E0024F66E3E0E01207E
:102F1000F76E000E0220F86E0900F5CF01F00900EF
:102F2000F5CF02F00900F5CF03F00900F5CF04F06A
:102F300004506A5D08E10350695D05E10250685D77
:102F400002E10150675D01E202D05B2AC9D75B5004
:102F50005924006E000E5A20016E655100266651FC
:102F6000012200505C5E01505D5A5FB604D059509A
:102F70005A1001E104D0010E5C5E000E5D5A030E92
:102F80005E14006E5FC001F0000E011600500110CB
:102F900004E0010E5C5E000E5D5A5EA439D05EA2B4
:102FA00012D05EA003D02D0E536E02D02B0E536EA6
:102FB0004AC0E1FF4BC0E2FF53C0E6FF4A4A4B2A3A
:102FC0006B4B6C2B0CD05EA00AD04AC0E1FF4BC00B
:102FD000E2FF200EE66E4A4A4B2A6B4B6C2B800EAA
:102FE000006E800E5D18005C02E15C5000080FE28C
:102FF0004AC0E1FF4BC0E2FF300EE66E4A4A4B2A60
:103000006B4B6C2B010E5C5E000E5D5AE8D73DD019
:103010005EB619D0800E006E800E5D18005C02E175
:103020005C50000810E200014AC0E1FF4BC0E2FF23
:10303000200EE66E4A4A4B2A6B4B6C2B010E5C5EEF
:10304000000E5D5AE7D75EA213D05EA003D02D0E0E
:10305000546E02D02B0E546E00014AC0E1FF4BC0EB
:10306000E2FF54C0E6FF4A4A4B2A6B4B6C2B0DD053
:103070005EA00BD000014AC0E1FF4BC0E2FF200E72
:10308000E66E4A4A4B2A6B4B6C2B5BC000F05B062A
:1030900000524DE000015BC000F0000E016E026EB8
:1030A000036E00360090013602360336003600907B
:1030B000013602360336980E0024F66E3E0E0120CD
:1030C000F76E000E0220F86E0900F5CF04F009003B
:1030D000F5CF05F00900F5CF06F00900F5CF07F0B0
:1030E00067C000F068C001F069C002F06AC003F078
:1030F00020EC07F00A0E046E000E056E066E076ED9
:1031000020EC07F008C000F009C001F00AC002F08E
:103110000BC003F0300E00264AC0E1FF4BC0E2FFB7
:1031200000C0E6FF4A4A4B2A6B4B6C2BAED700011E
:10313000800E006E800E6619005C02E16551000889
:103140000FE24AC0E1FF4BC0E2FF300EE66E4A4A92
:103150004B2A6B4B6C2B010E655F000E665BE7D74D
:10316000800E000A006E800E5A18005C02E1595071
:10317000080803E2080E5B6E02D059C05BF05B509A
:10318000595E000E5A5A5B5203E15FB601D00BD074
:1031900000014AC0E1FF4BC0E2FF2E0EE66E4A4A34
:1031A0004B2A6B4B6C2B5BC060F0A2EC08F061C04B
:1031B00004F062C005F063C006F064C007F0AEEC36
:1031C00003F013EC05F000C067F001C068F002C026
:1031D00069F003C06AF05B524DE05B065BC000F033
:1031E000000E016E026E036E00360090013602364C
:1031F000033600360090013602360336980E00245E
:10320000F66E3E0E0120F76E000E0220F86E0900E9
:10321000F5CF04F00900F5CF05F00900F5CF06F071
:103220000900F5CF07F067C000F068C001F069C081
:1032300002F06AC003F020EC07F00A0E046E000EE4
:10324000056E066E076E20EC07F008C000F009C09E
:1032500001F00AC002F00BC003F0300E00264AC095
:10326000E1FF4BC0E2FF00C0E6FF4A4A4B2A6B4B2E
:103270006C2BB1D759505A100FE04AC0E1FF4BC038
:10328000E2FF300EE66E4A4A4B2A6B4B6C2B010E66
:10329000595E000E5A5AEED75EA61AD0800E006E06
:1032A000800E5D18005C02E15C50000811E24AC02B
:1032B000E1FF4BC0E2FF200EE66E4A4A4B2A6B4B01
:1032C0006C2B010E5C5E000E5D5A5C505D10EFE1F0
:1032D000ADEF0DF0C00E5E14016E5FC002F0000E87
:1032E0000216000E021802E1000E0118D8A481D0C7
:1032F0005EA827D04FC0E9FF50C0EAFFEECF00F034
:10330000EECF01F000C0E9FF01C0EAFFEECF67F0A9
:10331000EECF68F0EECF69F0EECF6AF04FC0E9FF74
:1033200050C0EAFF040EEE24006E000EEE20016E87
:103330004FC0E1FF50C0E2FF00C0E6FF01C0E6FF62
:103340002FD04FC0E9FF50C0EAFFEECF00F0EECF24
:1033500001F000C0E9FF01C0EAFFEECF00F0EECFC0
:1033600001F0000E01BEFF0E026E036E00C067F09A
:1033700001C068F002C069F003C06AF04FC0E9FF05
:1033800050C0EAFF020EEE24006E000EEE20016E29
:103390004FC0E1FF50C0E2FF00C0E6FF01C0E6FF02
:1033A0000001800E6A19006E800E005C08E1000EBC
:1033B000695D05E1000E685D02E1000E675D18E2DF
:1033C000030E5E12000E5F12006A016A026A036A4F
:1033D0006751005E6851015A6951025A6A51035A95
:1033E00000C067F001C068F002C069F003C06AF075
:1033F0004FD05EA827D04FC0E9FF50C0EAFFEECF04
:1034000000F0EECF01F000C0E9FF01C0EAFFEECF0F
:1034100067F0EECF68F0EECF69F0EECF6AF04FC004
:10342000E9FF50C0EAFF040EEE24006E000EEE200D
:10343000016E4FC0E1FF50C0E2FF00C0E6FF01C0D7
:10344000E6FF26D000014FC0E9FF50C0EAFFEECFF3
:1034500000F0EECF01F000C0E9FF01C0EAFFEECFBF
:1034600067F0EECF68F0000E696F6A6F4FC0E9FF3A
:1034700050C0EAFF020EEE24006E000EEE20016E38
:103480004FC0E1FF50C0E2FF00C0E6FF01C0E6FF11
:10349000000E5A1802E1000E591810E10001000E4A
:1034A000006E6A1908E10050691905E100506819B9
:1034B00002E16751000A02E1594A5A2AC00E5E141D
:1034C000006E00C005F0B1D0010E5B6E5B500A0AC1
:1034D00035E000015BC000F0000E016E026E036E6D
:1034E0000036009001360236033600360090013671
:1034F00002360336980E0024F66E3E0E0120F76E5B
:10350000000E0220F86E0900F5CF01F00900F5CF9A
:1035100002F00900F5CF03F00900F5CF04F00450E4
:103520006A5D08E10350695D05E10250685D02E1F2
:103530000150675D01E202D05B2AC8D785D0010E39
:103540005B6E5B50080A35E000015BC000F0000EC6
:10355000016E026E036E00360090013602360336AD
:1035600000360090013602360336E70E0024F66E70
:103570003E0E0120F76E000E0220F86E0900F5CF16
:1035800001F00900F5CF02F00900F5CF03F00900C2
:10359000F5CF04F004506A5D08E10350695D05E170
:1035A0000250685D02E10150675D01E202D05B2AD2
:1035B000C8D74AD0010E5B6E5B500C0A35E00001A3
:1035C0005BC000F0000E016E026E036E00360090CC
:1035D00001360236033600360090013602360336D5
:1035E000680E0024F66E3E0E0120F76E000E0220DB
:1035F000F86E0900F5CF01F00900F5CF02F00900DF
:10360000F5CF03F00900F5CF04F004506A5D08E13E
:103610000350695D05E10250685D02E10150675D9C
:1036200001E202D05B2AC8D70FD00550000AD8B4F7
:103630004BD70550C00AD8B447D70550800AD8B434
:103640007ED70550400AB6E0800E006E800E5A18F4
:10365000005C02E159505B5C03E259C05BF00DD0A5
:10366000800E5A18006E800E005C02E15B50595CBF
:1036700004E25BC059F0000E5A6E5C505D100EE023
:10368000030E5E14006E5FC001F0000E01160050C4
:10369000011004E0010E5C5E000E5D5A800E5A18A7
:1036A000006E800E5D18005C02E15C50595C05E222
:1036B00059505C5E5A505D5A02D05C6A5D6AC40E15
:1036C0005E14016E5F50080B026E0250080A02E1A0
:1036D000400E011808E15C505D1004E0010E5C5ED4
:1036E000000E5D5A1CD0C00E5E14016E5F50080BB8
:1036F000026E0250080A02E1800E011810E1800EED
:10370000006E800E5D18005C02E15C50020805E26C
:10371000020E5C5E000E5D5A02D05C6A5D6A5EA4B9
:1037200061D05EA213D05EA003D02D0E556E02D0E4
:103730002B0E556E00014AC0E1FF4BC0E2FF55C0A1
:10374000E6FF4A4A4B2A6B4B6C2B36D05EA00CD05E
:1037500000014AC0E1FF4BC0E2FF200EE66E4A4A7C
:103760004B2A6B4B6C2B28D0C00E5E14016E5F5041
:10377000080B026E0250080A02E1800E01181CE1DB
:1037800000014AC0E1FF4BC0E2FF300EE66E4A4A3C
:103790004B2A6B4B6C2B5EAA03D0580E566E02D090
:1037A000780E566E4AC0E1FF4BC0E2FF56C0E6FFFE
:1037B0004A4A4B2A6B4B6C2B5C505D1012E00001A7
:1037C0004AC0E1FF4BC0E2FF300EE66E4A4A4B2A88
:1037D0006B4B6C2B010E5C5E000E5D5A5C505D10F5
:1037E000EEE179D05C505D1014E05EB612D00001BD
:1037F0004AC0E1FF4BC0E2FF200EE66E4A4A4B2A68
:103800006B4B6C2B010E5C5E000E5D5A5C505D10C4
:10381000EEE15EA213D05EA003D02D0E576E02D053
:103820002B0E576E00014AC0E1FF4BC0E2FF57C0AC
:10383000E6FF4A4A4B2A6B4B6C2B0DD05EA00BD097
:1038400000014AC0E1FF4BC0E2FF200EE66E4A4A8B
:103850004B2A6B4B6C2BC00E5E14016E5F50080B35
:10386000026E0250080A02E1400E01180CE100014C
:103870004AC0E1FF4BC0E2FF300EE66E4A4A4B2AD7
:103880006B4B6C2B28D0C00E5E14016E5F50080B82
:10389000026E0250080A02E1800E01181CE10001CC
:1038A0004AC0E1FF4BC0E2FF300EE66E4A4A4B2AA7
:1038B0006B4B6C2B5EAA03D0580E586E02D0780E5C
:1038C000586E4AC0E1FF4BC0E2FF58C0E6FF4A4ACB
:1038D0004B2A6B4B6C2B800E006E800E5A18005CCE
:1038E00002E159505B5C0CE200014AC0E1FF4BC0B1
:1038F000E2FF300EE66E4A4A4B2A6B4B6C2BEBD73D
:1039000059C000F05AC001F0010E595E000E5A5A1B
:1039100000500110D8B42CD1C00E5E14006E00C04F
:103920006DF00AD159C000F05AC001F0000E5ABE25
:10393000FF0E026E036E003600900136023603362B
:1039400000360090013602360336980E0024F66EDB
:103950003E0E0120F76E000E0220F86E0900F5CF32
:1039600004F00900F5CF05F00900F5CF06F00900D5
:10397000F5CF07F067C000F068C001F069C002F041
:103980006AC003F020EC07F00A0E046E000E056E0C
:10399000066E076E20EC07F008C000F009C001F0C9
:1039A0000AC002F00BC003F0300E00245B6ED4D0CE
:1039B0005EAA45D059C000F05AC001F0000E5ABEB0
:1039C000FF0E026E036E003600900136023603369B
:1039D00000360090013602360336E70E0024F66EFC
:1039E0003E0E0120F76E000E0220F86E0900F5CFA2
:1039F00004F00900F5CF05F00900F5CF06F0090045
:103A0000F5CF07F067C000F068C001F069C002F0B0
:103A10006AC003F020EC07F00F0E0016000E01162E
:103A200002160316070E0024F66E3F0E0120F76EF5
:103A3000000E0220F86E0900F5CF5BF044D059C0AB
:103A400000F05AC001F0000E5ABEFF0E026E036E67
:103A500000360090013602360336003600900136FB
:103A600002360336E70E0024F66E3E0E0120F76E96
:103A7000000E0220F86E0900F5CF04F00900F5CF22
:103A800005F00900F5CF06F00900F5CF07F067C093
:103A900000F068C001F069C002F06AC003F020ECD9
:103AA00007F00F0E0016000E011602160316180E70
:103AB0000024F66E3F0E0120F76E000E0220F86E15
:103AC0000900F5CF5BF048D059C000F05AC001F0B2
:103AD000000E5ABEFF0E026E036E003600900136D5
:103AE0000236033600360090013602360336680E81
:103AF0000024F66E3E0E0120F76E000E0220F86ED6
:103B00000900F5CF04F00900F5CF05F00900F5CF65
:103B100006F00900F5CF07F067C000F068C001F0BB
:103B200069C002F06AC003F020EC07F0070E001431
:103B30005B6E300E5B2610D000016D51000AD8B4C8
:103B4000F1D66D51C00AD8B4EDD66D51800AD8B403
:103B50002FD76D51400AB8E000014AC0E1FF4BC0C9
:103B6000E2FF5BC0E6FF4A4A4B2A6B4B6C2BC8D680
:103B70005EA61BD0800E006E800E5D18005C02E118
:103B80005C50000812E200014AC0E1FF4BC0E2FFB6
:103B9000200EE66E4A4A4B2A6B4B6C2B010E5C5E84
:103BA000000E5D5A5C505D10EEE1ADEF0DF06BC0A4
:083BB00000F06CC001F01200EE
:103BB800440E486E000E496E3FC04AF040C04BF0BC
:103BC80041C04CF042C04DF043C04EF0480E4F6E1D
:103BD800000E506EA8EC0DF000C046F001C047F092
:103BE80000503F24E16E01504020E26EE66A46C074
:083BF80000F047C001F01200CB
:103C00003F6A406A8384100E0D6E0D2EFED70000B1
:103C1000839483B601D0FDD783A608D03F4A402ABB
:103C2000600E0D6E0D2EFED70000F6D73FC000F0DF
:063C300040C001F012008B
:103C36000FD0800E3F6E19D0C00E3F6E16D0940E78
:103C46003F6E13D0D40E3F6E10D0800E3F6E0DD057
:103C56003F50010AEEE03F50020AEEE03F50030AF1
:103C6600EEE03F50040AEEE0F0D74004006E3F500D
:103C7600002600C03FF000C060F066EC0CF03E90FD
:103C8600436A43504124E96E000E4220EA6EEE522A
:103C96000CE043504124E96E000E4220EA6EEECF5E
:0E3CA6004AF0A2EC0DF0432AECD73E8012004B
:103CB4000900F5CFE6FF0006FBE10106F9E1120079
:103CC400959295909598959A959C959E83928390BC
:103CD400839E839C839A839853EC04F053EC04F002
:103CE40053EC04F0838A8388838272EC04F0839219
:103CF40053EC04F0838272EC04F0839253EC04F0EE
:103D0400838272EC04F0839253EC04F083988382F0
:103D140072EC04F0839253EC04F0838272EC04F0AE
:103D24008392839A838E838272EC04F0839253ECA1
:103D340004F0839E8388838272EC04F083928398D8
:103D4400838272EC04F0839253EC04F0838272EC6D
:103D540004F083928388838272EC04F0839253ECA0
:103D640004F08398838272EC04F08392838E838CB4
:103D7400838A8388838272EC04F0839253EC04F088
:043D84003E8012006B
:103D88009DEC1FF00F0EC16E9594958697DF0C0E73
:103D98000001606F66EC0CF0010E3F6E010E406E84
:103DA800150E416E000E426E42DF26DF00C03CF069
:103DB80001C03DF0210E3F6E000E406E290E416E8F
:103DC8003F0E426E000E436E00C044F001C045F045
:103DD800EFDE020E3F6E010E406E210E416E000EA8
:103DE800426E25DFC30E0C6ECD0E0D6E0D2EFED766
:083DF8000C2EFCD7DAD7FFD72F
:103F3A0010EE15F0270E006E010E016EC00EF66E21
:0E3F4A003E0EF76E000EF86E5AEC1EF01200DE
:103E00000000007FCDCC4C7B0AD723786F1203755E
:103E100017B75171ACC5276EBD37066B95BF566796
:103E200077CC2B645F700961FFE65B5D08E53C3C85
:043E30006042221BAF
:103E34000000007F000020820000488500007A888E
:103E440000401C8C0050438F002474928096189676
:103E540020BC3E99286B6E9CF90215A0EC782DC10C
:043E6400CAF249E273
:103E680001000000080000004000000000020000FF
:103E78000010000000800000000004000000200086
:103E880000000001000000080000004000000000E1
:103E9800010000000A00000064000000E8030000C0
:103EA80010270000A086010040420F00809698006D
:083EB80000E1F50500CA9A3B88
:0C3EC000202020204843535230342000C2
:103ECC0000000000000000000000000000000000E6
:043EDC0000000000E2
:073EE000286E756C6C2900CF
:103EE70001000000100000000001000000100000A9
:103EF7000000010000001000000000010000001099
:103F07003031323334353637383941424344454608
:013F170000A9
:103F18003031323334353637383961626364656637
:013F28000098
:103F290064697374616E6369613A20253034640091
:020000040030CA
:0E000000000C1F1EFF8381FF0FC00FE00F409A
:00000001FF
