:1000000016EF00F00000000000EF00F0000000001C
:0A0010000000000000000000F3D71C
:10001C000900F5CFE6FF0006FBE10106F9E112004D
:10002C00030E156E166A0F0EC16EFF0E936E956A57
:10003C00949094928290829281A003D081A201D05C
:10004C0003D08280829202D082908292800E161807
:10005C00006E800E005C02E1030E155C02E38C80E6
:10006C0001D08C90030E0B6E080E0C6E770E0D6E7D
:10007C000D2EFED70C2EFCD70B2EFAD7DDD7FFD7C3
:020000040030CA
:0E00000000081F1EFF8381FF0FC00FE00F409E
:00000001FF
