:100000004FEF00F00000000000EF00F000000000E3
:0A0010000000000000000000F3D71C
:10001C001ED03F0E016E39D0060E016E36D05B0E2F
:10002C00016E33D04F0E016E30D0660E016E2DD0A6
:10003C006D0E016E2AD07D0E016E27D0070E016E5B
:10004C0024D07F0E016E21D0670E016E1ED015508C
:10005C00000ADFE01550010ADFE01550020ADFE06C
:10006C001550030ADFE01550040ADFE01550050AAD
:10007C00DFE01550060ADFE01550070ADFE01550E7
:10008C00080ADFE01550090ADFE00150FF08006E96
:02009C00120050
:10009E000F0EC16E926A956A8080809280948096CF
:1000AE00020E156EB4DF00C08CFF0D0E0C6EFB0E33
:1000BE000D6E0D2EFED70C2EFCD70000000080908A
:1000CE00808280948096080E156EA1DF00C08CFF92
:1000DE000D0E0C6EFB0E0D6E0D2EFED70C2EFCD7DC
:1000EE00000000008090809280848096010E156E34
:1000FE008EDF00C08CFF0D0E0C6EFB0E0D6E0D2EE6
:10010E00FED70C2EFCD700000000809080928094C9
:10011E008086060E156E7BDF00C08CFF0D0E0C6EFA
:10012E00FB0E0D6E0D2EFED70C2EFCD70000000020
:04013E00B3D7FFD75D
:020000040030CA
:0E000000000C1F1EFF8381FF0FC00FE00F409A
:00000001FF
