:10000000CDEF00F00000000000EF00F00000000065
:0A0010000000000000000000F3D71C
:10001C00F00E8C6E020E0B6E040E0C6EBA0E0D6E84
:10002C000D2EFED70C2EFCD70B2EFAD700000F0E80
:10003C008C6E020E0B6E040E0C6EBA0E0D6E0D2E27
:0E004C00FED70C2EFCD70B2EFAD700001200A8
:10005A00550E8C6E020E0B6E040E0C6EBA0E0D6EE1
:10006A000D2EFED70C2EFCD70B2EFAD70000AA0EA7
:10007A008C6E020E0B6E040E0C6EBA0E0D6E0D2EE9
:0E008A00FED70C2EFCD70B2EFAD7000012006A
:10009800010E8C6E020E0B6E040E0C6EBA0E0D6EF7
:1000A8000D2EFED70C2EFCD70B2EFAD70000020E11
:1000B8008C6E020E0B6E040E0C6EBA0E0D6E0D2EAB
:1000C800FED70C2EFCD70B2EFAD70000040E8C6E30
:1000D800020E0B6E040E0C6EBA0E0D6E0D2EFED7B0
:1000E8000C2EFCD70B2EFAD70000080E8C6E020ED1
:1000F8000B6E040E0C6EBA0E0D6E0D2EFED70C2E66
:10010800FCD70B2EFAD70000100E8C6E020E0B6E69
:10011800040E0C6EBA0E0D6E0D2EFED70C2EFCD7EB
:100128000B2EFAD70000200E8C6E020E0B6E040EFA
:100138000C6EBA0E0D6E0D2EFED70C2EFCD70B2EA4
:10014800FAD70000400E8C6E020E0B6E040E0C6E79
:10015800BA0E0D6E0D2EFED70C2EFCD70B2EFAD72D
:100168000000800E8C6E020E0B6E040E0C6EBA0E22
:100178000D6E0D2EFED70C2EFCD70B2EFAD70000D5
:02018800120063
:10018A000900F5CFE6FF0006FBE10106F9E11200DE
:10019A00156A166A956A8C6A156A166A800E006E66
:1001AA00800E1618005C02E11550060804E36FDFA2
:1001BA00154A162AF3D7156A166A800E006E800E43
:1001CA001618005C02E11550170804E322DF154AED
:1001DA00162AF3D7156A166A800E006E800E161854
:1001EA00005C02E11550170804E332DF154A162AAB
:0601FA00F3D7D2D7FFD7B6
:020000040030CA
:0E00000000001F1EFF8381FF0FC00FE00F40A6
:00000001FF
