:1000000016EF00F00000000000EF00F0000000001C
:0A0010000000000000000000F3D71C
:10001C000900F5CFE6FF0006FBE10106F9E112004D
:10002C00010E156E166AFF0E176E070E186E196A02
:10003C001A6A1B6A1C6A720ED36E0F0EC16E946A1A
:10004C00956A19C08CFF1AC000F0000E1ABEFF0E84
:10005C00016E00C08BFF800E006E800E1C18005CC1
:10006C0002E11B500B0812E31BC002F015C000F09C
:10007C0016C001F0025005E0003600900136FF0F6B
:10008C00FAD70050191201501A1219D00B0E1B5C22
:10009C00006E000E1C58016E00C002F017C000F07C
:1000AC0018C001F0025007E001320032019E01BC81
:1000BC00018EFF0FF8D70050191601501A161B4A63
:1000CC001C2A800E006E800E1C18005C02E11B5076
:1000DC00160802E21B6A1C6A030E0B6E080E0C6EED
:1000EC00770E0D6E0D2EFED70C2EFCD70B2EFAD7DD
:0400FC00A8D7FFD7AB
:020000040030CA
:0E00000000081F1EFF8381FF0FC00FE00F409E
:00000001FF
