:0400000043EF01F0D9
:1000080000C016F001C015F0F2A213D0174A182A42
:10001800800E006E800E1818005C02E11750090867
:1000280002E2176A186A17C021F0A8D800C089FF31
:10003800F292F0A017D0010E175E000E185A800E2B
:100048001818006E800E005C02E1000E175C04E2D6
:10005800090E176E000E186E17C021F08FD800C059
:0E00680089FFF09016C000F015C001F01100E5
:10007600220E0C6E086A096A0A6A0B6A0C06D8B464
:100086001FD0D8900B320A320932083203320232BC
:1000960001320032D8A0F2D70C06D8B409D00450E9
:1000A60008260550092206500A2207500B22EAD7D5
:1000B600045008260550092206500A2207500B2232
:0200C600120026
:1000C800D00E1D6E070E1E6E000E1F6E206ED00E17
:1000D800006E070E016E000E026E000E036E1BC04E
:1000E80004F01CC005F0000E066E076EC0DF00C0ED
:1000F8001DF001C01EF002C01FF003C020F0000E6A
:10010800035C08E1000E025C05E1020E015C02E1FD
:10011800940E005C01E231D0940E1D5E020E1E5A50
:10012800000E1F5A205A050E006E005007E02032BC
:100138001F321E321D32209EFF0FF8D71DC000F05F
:100148001EC001F01FC002F020C003F0010E1D5EAA
:10015800000E1E5A1F5A205A005001100210031098
:100168000CE000000000000000000000000000009B
:0C0178000000000000000000E1D71200B1
:100184001ED0C00E016E39D0F90E016E36D0A40E09
:10019400016E33D0B00E016E30D0990E016E2DD0A9
:1001A400920E016E2AD0820E016E27D0F80E016ED7
:1001B40024D0800E016E21D0980E016E1ED02150E5
:1001C400000ADFE02150010ADFE02150020ADFE0EB
:1001D4002150030ADFE02150040ADFE02150050A20
:1001E400DFE02150060ADFE02150070ADFE021505A
:1001F400080ADFE02150090ADFE001C000F0120024
:100204000900F5CFE6FF0006FBE10106F9E1120063
:10021400010E8C6E19C01BF01AC01CF053DF030EC4
:100224008C6E19C01BF01AC01CF04CDF070E8C6ECC
:1002340019C01BF01AC01CF045DF0F0E8C6E19C0DC
:100244001BF01AC01CF03EDF1F0E8C6E19C01BF091
:100254001AC01CF037DF3F0E8C6E19C01BF01AC099
:100264001CF030DF7F0E8C6E19C01BF01AC01CF01E
:1002740029DFFF0E8C6E19C01BF01AC01CF022DFA0
:02028400120066
:10028600176A186A720ED36E0F0EC16E926A956A5D
:1002960093809382896AFF0E8C6EF28EF28CF292B4
:1002A600F090F288F086F18CF18AE80E196E030E52
:0802B6001A6EADDFFAD7FFD785
:020000040030CA
:0E00000008081F1EFF8381FF0FC00FE00F4096
:00000001FF
