:040000001DEF01F0FF
:1000080000C016F001C015F0F2A01FD0006A8AB037
:10001800002A002A00B002D08A9001D08A80F00E0F
:100028008114016E01C06CF0000E01B8010E4A6E19
:10003800000E01BA010E496E000E01BC010E386EA9
:10004800000E01BE010E276EF29016C000F015C01A
:0400580001F01100A2
:0C005C0000000000000000000000120086
:10006800240E0C6EB50E0D6E0D2EFED70C2EFCD781
:0600780000000000120070
:0A007E00530E0D6E0D2EFED712007A
:10008800000174BF02D0839E01D0838E74BD02D05C
:10009800839C01D0838C74BB02D0839A01D0838A5D
:1000A80074B902D0839801D083886DB102D083805F
:1000B80001D083908382CEDF839274B702D0839E6F
:1000C80001D0838E74B502D0839C01D0838C74B325
:1000D80002D0839A01D0838A74B102D0839801D068
:1000E80083886DB102D0838001D083908382B2DF90
:0E00F80083926DA102D0B4DF01D0BDDF1200F3
:0E01060000016D9173C074F0BCDF6D811200BA
:100114000900F5CFE6FF0006FBE10106F9E1120054
:10012400959295909598959A959C959E8392839097
:10013400839E839C839A839895DF94DF93DF838ADD
:100144008388838289DF83928DDF838285DF839234
:1001540089DF838281DF839285DF839883827CDFDA
:10016400839280DF838278DF8392839A838E838273
:1001740073DF839277DF839E838883826DDF83922C
:100184008398838269DF83926DDF838265DF839244
:100194008388838261DF839265DF839883825CDF57
:1001A4008392838E838C838A8388838255DF8392B0
:0801B40059DF00016D8112000A
:1001BC0010D0800E00016E6F1AD0C00E6E6F17D06B
:1001CC00940E6E6F14D0D40E6E6F11D0800E6E6FB5
:1001DC000ED000016E51010AECE06E51020AEDE006
:1001EC006E51030AEDE06E51040AEDE0EFD76F0596
:1001FC00006E6E51002600C06EF000C074F03EDF41
:10020C006D91726B72517025E96E000E7121EA6E60
:10021C00EE520BE072517025E96E000E7121EA6E00
:0E022C00EECF73F06ADF722BEDD76D811200FA
:10023A00BCEC01F00F0EC16EF00E936EF00E81143D
:10024A0000016C6FF28EF290F28667DF0C0E746F0B
:10025A0016DF010E6E6F010E6F6F5B0E706F000E70
:10026A00716FA7DF4A50010A0AE1020E6E6F010E92
:10027A006F6F390E706F000E716F9BDF09D0020E1F
:10028A006E6F010E6F6F410E706F000E716F91DF0E
:10029A004950010A0AE1020E6E6F090E6F6F530E82
:1002AA00706F000E716F85DF09D0020E6E6F090E36
:1002BA006F6F4B0E706F000E716F7BDF3850010A43
:1002CA000AE1030E6E6F010E6F6F1F0E706F000E44
:1002DA00716F6FDF09D0030E6E6F010E6F6F170E0D
:1002EA00706F000E716F65DF2750010A0AE1030E75
:1002FA006E6F090E6F6F300E706F000E716F59DFDF
:10030A0009D0030E6E6F090E6F6F280E706F000E04
:08031A00716F4FDFA7D7FFD779
:1003780010EE17F0550E006E010E016E220EF66E8D
:0E038800030EF76E000EF86E8AEC00F0120005
:080322005A333A204F46460011
:08032A005A333A20204F4E0027
:0103320000CA
:080333005A343A204F464600FF
:08033B005A343A20204F4E0015
:0103430000B9
:080344005A313A20204F4E000F
:08034C005A313A204F464600E9
:0103540000A8
:0103550000A7
:080356005A323A204F464600DE
:08035E005A323A20204F4E00F4
:1003660020534953542E205345475552494441443E
:010376000086
:020000040030CA
:0E000000000C1F1EFF8381FF0FC00FE00F409A
:00000001FF
